:02000004080AE8
:1000000000000A083C320A0800000500060005014D
:080010000402EA0300000000F5
:10001800E8280A0809480A4908B5884205D0094A63
:10002800824202D0121A02F069FB0748074A0021EF
:10003800121A02F06EFB064808BD00BF000300203C
:1000480084310A089003002090030020BC0B002094
:10005800BC0B002070B501F001FE074B074C1E4693
:10006800E41AA4080025A54204D056F8253098477C
:100078000135F8E770BD00BF38310A087C310A083D
:1000880000F09EBB08B500F007FDBDE8084001F090
:10009800A7BD01F03FB801F045B80078B0FA80F08C
:1000A80040097047012303707047000008B500F04D
:1000B80083FE034B1860BDE8084001F013B800BF89
:1000C800C80A002038B50B4B8469054603607CB12B
:1000D8006368013B63605BB9236820469B68984767
:1000E800A368013BA3601BB923682046DB689847D7
:1000F800284638BDD82E0A0810B50446FFF7E2FF97
:10010800204610BD10B50446FFF7DCFF2046FFF778
:10011800C2FF204610BD03682BB14268934202D249
:10012800184602F0D5BA0020704738B5056804466D
:1001380045B143689D4205D2284602F025FB0130AF
:1001480005442560204638BD70B54368044680687C
:100158009E188642154606D82068184402F0CEFA42
:1001680063681D44656070BD70B504464068A66844
:1001780025680B46044A311A284400F0DBFF6368FF
:1001880001301844606070BD56290A0870B50446ED
:100198004068A66825680B46044A311A284400F0CE
:1001A800C9FF636801301844606070BD59290A08A6
:1001B80008B500234377006801F068FABDE80840F5
:1001C80000F0BCBC2DE9F0418E188EB0B1428046DB
:1001D8000D4617460591069680F0EE800B8805A817
:1001E800ADF81230FFF7A1FF03689E4240F2E480A9
:1001F80005A8FFF790FF47F27622BDF81230C4B287
:10020800934200F0A0800DD847F26122934265D056
:1002180047F26422934239D046F67052934240F036
:10022800BD802FE047F26472934242D047F2767263
:10023800934200F0998047F26172934240F0AE8099
:100248006EE005A8FFF767FFC5B205A8FFF76DFFC9
:10025800059C5B49204602F08DFA0146002800F013
:10026800A7805849204602F085FA002800F09F80B0
:100278005549204602F07EFA002800F0988005A82B
:10028800FFF753FF059B9E42DBD895E00AAB079327
:100298000322102307A800254C4909930895FFF766
:1002A80053FF07A82146FFF75FFF204601F050FDE6
:1002B80026E005A8FFF739FF03689E427CD9A4B25F
:1002C8000121204601F01AFD05A8FFF724FF011CB3
:1002D80018BF0121204601F022FD6DE00AAB07930B
:1002E800032210233A4907A8002509930895FFF728
:1002F8002BFF07A82146FFF737FF204601F03BFDFB
:10030800014607A8FFF742FF2A46089B0295013BD2
:100318000093079B01951421404600F0A9FA4BE091
:1003280005A8FFF702FF03689E4245D9A4B2012140
:10033800204601F0E3FC05A8FFF7EDFE0146204644
:1003480001F030FD38E00EAD204605F8104D00F004
:10035800F7FB0346284623B11E4A934201D098472B
:100368002AE000F0E9FB27E005A8FFF7DEFE059B81
:1003780020465D1B7D1B0A930B950C958DF81C4040
:1003880000F0E8FB03460AA907A823B1124A9342E2
:1003980001D0984710E000F0D0FB0DE000230221C7
:1003A8000091B8F81A20029301931946B4E7012185
:1003B800284601F0A3FC62E70EB0BDE8F08100BF5B
:1003C8005D290A0860290A0864290A0868290A08B0
:1003D8006B290A08410B0A08430B0A082DE9F0416A
:1003E8008EB004AF0546052207F10C01006800F045
:1003F800E5FF002800F01981052801D0002019E147
:10040800B7F80D20B7F80F40130A43EA0222230A6F
:1004180043EA042492B2A4B2A7F80D20A7F80F402B
:10042800002AEBD03B7BF3B900F082FB6B7FE860DE
:10043800B7F80F209BB9B7F80D1001290FD1042A7E
:1004480001D0C82ADAD1012468616C77284600F007
:10045800C7FAFFF72BFE00F071FB2046EAE0501FB9
:1004680018BF0120E6E0B4F5806F03D92846FFF7EE
:100478009FFEDAE004F1080323F00703E846ADEB3A
:10048800030D04AE22463146286800F097FF8442E7
:100498004FF0000440F0C480B7F80F30F45400F077
:1004A80047FB3B7BE860112B72D006D8062B20D087
:1004B8000F2B60D0022B09D0AEE0292B25D0372B8B
:1004C80000F0B080142B40F0A78054E06B7F43B954
:1004D80001236B77284600F083FAFFF7E7FD00F069
:1004E8002DFB0023C821B7F80D200293019300913A
:1004F80006E0C823B7F80D20009323460294019420
:100508001946284600F0B4F98CE0AB681BB92020E6
:1005180000F000FEA860B7F80F40FE613444A64220
:100528003C6201D300207EE020223146A86802F018
:1005380033F907F11C00FFF7F8FD0368A34207D25F
:10054800F86918B13B6A984271D3002084B200E080
:100558005024286801F09AF82B68AA681C875A6307
:1005680000236B7700F0E4FAA0F59C500838286166
:10057800E860686156E0FB68B7F80F20C3F30F2303
:100588006B8331462846FFF71DFE00236B8349E045
:10059800B7F80F303C7133449E427E61BB6141D253
:1005A8003068B86007F11400FFF7BFFD7A69B7F843
:1005B8000F30961B9E1BFA61BB68204A3E6293422D
:1005C8007E621DD00BD802F1FD3202F10222934265
:1005D80028D107F11C01381D00F0AFFA22E0184AB3
:1005E800934213D002F19F6202F5003202F5807245
:1005F800934217D107F11C01381D00F09EFA11E053
:1006080007F11C01381D00F098FA0BE007F11C01F6
:10061800381D00F092FA05E02846FFF7C9FD01E011
:10062800204600E00120C54604E0012002E002F077
:1006380053F88BE72837BD46BDE8F0817274630034
:1006480061636F6E2DE9F04104468AB00D46FFF7ED
:100658002DFD637F022B00F09D80237F628B013389
:10066800DBB22377002A41D1022B3FD8206801F062
:1006780011F940B1002D40F08F80206800F0C8FFCC
:10068800002800F3898000F053FA0646206801F03C
:1006980001F9677F0546012F2AD120B966612046F6
:1006A800FFF786FD72E044F63822E368F31A9342B6
:1006B80004D92046FFF77CFD002567E042F210725E
:1006C800934203D82369F31A93420FD940F6B832FC
:1006D8006369F31A934209D90023029301930093A3
:1006E8001A460621204600F0C3F8666101254DE050
:1006F800002FFBD1626950B140F6B833B61A9E425A
:10070800F4D9206800F0C2FF3D4667773EE041F229
:100718008833B21A9A42E9D9206800F0B7FFD4F8B2
:1007280000E0DEF834C0BEF83880BCF1000F06D017
:100738002B4642466146704600F0A4FE0EE01F4B71
:1007480005AD0EF1200704930FCF0FC53B68424655
:100758002B7004A96346704600F0F4FF431E5D4207
:100768005D410DB9666111E0676801262683384648
:1007780002F00AF800238DE80900029332463B464E
:100788000221204600F074F823696361237F013B4E
:1007980023770EE000250CE02046FFF71FFE0546F4
:1007A80000287FF46AAF206800F070FF00F0C6F9F7
:1007B800ECE728460AB0BDE8F08100BFB82D0A086A
:1007C800F8B501F063F94FF4165101F045F901212C
:1007D800062001F093FA0121042001F08FFA01F0BC
:1007E80055F94FF4165101F037F941F2883000F00D
:1007F800A9FC1A4A4FF47A71194800F012FA40F627
:10080800B830184C00F092F9174B42F22736636063
:1008180000F08EF92368154AA0F59C5008385A63F1
:1008280050222061E06060611A870025206800F08E
:100838002DFF657700F07CF90746637F012B09D00F
:1008480000F076F9C01BB04204D800210548FFF734
:10085800F9FEF2E7637F012BE8D1F8BD810A0A08A7
:1008680098030020DC050020000300206E290A08F8
:100878002DE9F04F83B0044600AF0068894616465C
:100888009B463D6BEA4601F005F8002861D019F057
:10089800FD0F00F0A180B9F1060F00F09D80637F85
:1008A800012B56D116B9668B002E57D0A9F10C032F
:1008B800082B5BD9BBF1000F18BFA8467A6B08BF9D
:1008C8004FF00008002ABA6B08F1050314BF9046E0
:1008D8004FF00008984408F1070323F00703AA180B
:1008E800ADEB030DC2F3072376BA43EA0223C7F838
:1008F80004D08DF80090ADF80160ADF80330BBF17D
:10090800000F52D0002D50D02A4659460DF105004F
:1009180001F0F4FE681D7B6B002B48D1002545458E
:1009280051D2C5EB08027B68B2F5806F28BF4FF43F
:1009380080625919206800F084FD0646002000F006
:10094800F5F8002E3DD1206800F0A0FE667700F093
:10095800F5F8D5460C37BD46BDE8F08F238B01333B
:100968009BB203B901232383268B9FE7E36822699F
:10097800934238BF134603F1420800F0D9F8C0EBA0
:10098800080000280ADB00212046FFF75BFE00F084
:10099800CFF8C0EB08000028F5DA8BE7217F0029A3
:1009A80088D12046FFF74EFE84E70520B3E7BB6BEE
:1009B800002BB3D01A467B68796B184401F09EFE71
:1009C800ACE73544ABE703D02046FFF7F1FBC0E7BF
:1009D80000F0AEF82061BCE7002E7FF46BAF62E751
:1009E8001FB500225023009302920192034B11215C
:1009F800FFF73EFF05B05DF804FB00BF04290A08B5
:100A08002DE9F0410D469046ADF5846D08AB002404
:100A180003220646059305A84FF4806314490793FB
:100A28000694FFF791FB294605A8FFF79DFB069B57
:100A38000799059D4046CF1A1D4401F0E7FC0D4A71
:100A4800CDE900013946284600F074FB069B0130C9
:100A5800184406900138009002940194059B2246A0
:100A680014213046FFF704FF0DF5846DBDE8F081D1
:100A78007E290A0881290A0808B5054800F042F9C4
:100A880001F0D2FD002102460248FFF7B9FF08BD78
:100A980094030020DC05002008B500210348FFF777
:100AA800D1FDBDE80840024800F0DDB8DC050020B3
:100AB8009803002038B5134D00F086F9284600F059
:100AC80037FE05F11C00002400F0AAFB0E490F4A6E
:100AD80028466C632C8701F0E7F90D4B0D481D6023
:100AE8005C609C60DC601C615C611C835C831C77BF
:100AF8005C7700F03BF8BDE838400221064800F07A
:100B0800FEB800BFFC05002001010A089003002080
:100B1800DC050020980300209403002008B500F0AD
:100B280053F9014B186008BD3806002000F00ABBD5
:100B380000F042B900F048B97047704770470000AC
:100B48007F289ABF024B53F820000020704700BF4F
:100B5800882B0A087F289ABF024B53F820000020F0
:100B6800704700BF88290A0800F02EB94FF0FF33FC
:100B7800C0F84032704770B50546FFF7D9FF064602
:100B8800002428192422002101F0C3FD2E51243409
:100B9800B4F5107FF5D10023C5F8403270BDD0F808
:100BA80040320F2B08DC0023242202FB0301496892
:100BB80029B10133102BF8D14FF0FF307047184698
:100BC80070472DE9F8439846D0F840320546002B87
:100BD8008946174601DAFFF7CEFF2846FFF7DFFF01
:100BE800041E1ADBCFB1242666439DF82020AB19DA
:100BF8001A73099AC3F810905A6101225F60C3F80A
:100C080008801A77FFF794FFA851D5F8403220469C
:100C18000133C5F84032BDE8F8834FF0FF30BDE836
:100C2800F88307B5002301930093FFF7CAFF03B0C9
:100C38005DF804FB0F2938B5044613D8D0F84032C4
:100C480083B1242202FB01F52844436853B10021F3
:100C580001F05FFDFFF76CFF6051D4F84032013BB3
:100C6800C4F8403238BD2DE9F04105460126FFF7AA
:100C78005FFF05F511772B1D4FF0000E4FF0020CAA
:100C88001A68C3F81CE0E2B153F8048CDC68C8EBBE
:100C98000002A24215D3B2FBF4F104FB018243F82F
:100CA800042C1A7E6AB1196909B9DE6109E05A692A
:100CB800914206D901329142DE615A6198BFC3F868
:100CC8001CC02433BB42DBD12C460026236A6BB1FF
:100CD800227B636812B1A068984700E09847236AAE
:100CE800022B03D131462846FFF7A4FF0136102E08
:100CF80004F12404EAD1BDE8F08100F065B8016090
:100D08007047000070B504460121008800F0F6FF26
:100D180023881C25134E6B4332680220D118D35800
:100D28008A885A8300F040F8238832686B43D118C8
:100D3800D3588A8805201A8300F036F823880021C2
:100D48005D4333685A1992885B595A83208800F0AA
:100D5800D5FF0121208801F04BF83A2390FBF3F0EE
:100D680070BD00BF3C06002008B500F02DF8014B0F
:100D7800186008BD3C06002008B5024B1B681B6BB9
:100D8800019308BDD001060808B5024B1B68DB6E4D
:100D9800019308BDB801060808B5024B1B685B68DB
:100DA800019308BD9C01060808B5024B1B68DB6867
:100DB800019308BD9C01060808B5024B1B685B69D6
:100DC800019308BD9C01060808B5024B1B681B6807
:100DD800019308BDB001060808B5024B1B685B68A3
:100DE800019308BDB001060808B5024B1B689B6853
:100DF800019308BDB001060808B5024B1B68DB6803
:100E0800019308BDB001060808B5024B1B681B69B1
:100E1800019308BDB001060808B5024B1B685B6961
:100E2800019308BDB001060808B5024B1B689B6A10
:100E3800019308BDB001060808B5024B1B681B6B7F
:100E4800019308BDB001060808B5024B1B68DB6CAE
:100E5800019308BDB001060808B5024B1B689B6FDB
:100E6800019308BDB001060808B5024B1B681B6E4C
:100E7800019308BDAC01060808B5024B1B685B6E00
:100E8800019308BDAC01060808B5024B1B689B6EB0
:100E9800019308BDAC01060808B5024B1B68DB6E60
:100EA800019308BDAC01060808B5024B1B681B6F0F
:100EB800019308BDAC01060808B5024B1B685B6FBF
:100EC800019308BDAC01060808B5034B1B68D3F8AD
:100ED8008030019308BD0000AC01060808B5024B3C
:100EE8001B681B68019308BDBC01060808B5024BC6
:100EF8001B685B68019308BDBC01060808B5024B76
:100F08001B689B68019308BDBC01060808B5024B25
:100F18001B68DB68019308BDBC01060808B5024BD5
:100F28001B681B69019308BDBC01060808B5024B84
:100F38001B681B6A019308BDBC01060808B5024B73
:100F48001B681B6B019308BDBC01060808B5024B62
:100F58001B685B6C019308BDBC01060808B5024B11
:100F68001B68DB69019308BDB401060808B5024B8C
:100F78001B681B6A019308BDB401060808B5024B3B
:100F88001B689B69019308BDC401060808B5024B9C
:100F98001B685B6A019308BDC401060808B5024BCB
:100FA8001B689B6A019308BDC401060808B5024B7B
:100FB8001B68DB6A019308BDC401060808B5024B2B
:100FC8001B681B6B019308BDC401060808B5024BDA
:100FD8001B685B6B019308BDC401060808B5024B8A
:100FE8001B689B6B019308BDC401060808B5024B3A
:100FF8001B681B6C019308BDC401060808B5024BA9
:101008001B681B68019308BDD801060808B5024B88
:101018001B685B68019308BDD801060808B5024B38
:101028001B681B69019308BDD801060808B5024B67
:101038001B685B69019308BDD801060808B5024B17
:101048001B689B69019308BDD801060808B5024BC7
:101058001B68DB69019308BDD801060808B5024B77
:101068001B681B6A019308BDD801060808B5024B26
:101078001B685B6C019308BDC001060808B5024BEC
:101088001B689B6C019308BDC001060808B5024B9C
:101098001B681B6D019308BDA801020808B5024B27
:1010A8001B685B68019308BDA401060808B5024BDC
:1010B8001B685B69019308BDA401060808B5034BCA
:1010C8001B68D3F89030019308BD0000A4010608FE
:1010D80008B5034B1B68D3F89C30019308BD00008A
:1010E800A401060808B5024B1B689B68019308BD5C
:1010F800CC01060808B5024B1B68DB6B019308BDE1
:10110800CC01060808B5024B1B681B69019308BD92
:10111800C801060808B5024B1B681B68019308BD87
:10112800A001060808B5024B1B685B68019308BD5F
:10113800A001060808B5024B1B68DB69019308BDCE
:10114800A00106080021FFF7B1BF10B58368044667
:1011580013B1032201469847204610BD7047F8B5E1
:10116800064615460C468F18BC4206D0336814F85C
:10117800011B9B6830469847F6E72846F8BD0022D1
:10118800007CFFF771BE0021007CFFF775BE0021CF
:10119800007CFFF779BE0021007CFFF77DBE0021AF
:1011A800007CFFF781BE10B50446FEF774FF2046A9
:1011B80010BD000010B5044608464FF47A73A360CA
:1011C800044B0021207461602360FFF77DFE2046F8
:1011D80010BD00BF902D0A080021007CFFF76CBEEF
:1011E800704710B50446FEF756FF204610BDF8B507
:1011F8000F4600F10806051D002416F8011D0A22F5
:10120800384600F090F8AE42044407D0002CF4D0E1
:101218002E21384600F05AF80444EEE72046F8BD7F
:1012280010B50446044B112240F8043B002101F09C
:1012380070FA204610BD00BFB82D0A0810B59DF8F9
:10124800084044EA032343EA024242EA01610423D4
:101258004160037510BD000037B5044D05609DF869
:1012680018500095FFF7EAFF03B030BDB82D0A0803
:10127800014A024B1A6070477A2E0A08400600207D
:10128800F8B506460D468F180024BD420CD03368C9
:1012980015F8011B9B6830469847002801DB044479
:1012A800F3E7002C08BF04462046F8BD70B5054694
:1012B8000C46084649B101F067FA2B6802462146F8
:1012C8002846BDE87040DB68184770BD03689B6816
:1012D8001847012A98BF0A2230B50B468BB0002167
:1012E8008DF824100DF12304B3FBF2F505FB12333E
:1012F800DBB2092B94BF30333733DBB2214604F815
:1013080001392B46002DEFD1FFF7D0FF0BB030BDD0
:1013180010B422B90368C9B29B6810BC1847D2B28E
:1013280010BCFFF7D6BFFFF7F3BF10B50446FFF7B1
:101338000CFF204610BD0000034800238360034AC9
:10134800034900F0B1BD00BF44060020900300200F
:1013580033130A08704710B50446FEF79CFE204672
:1013680010BD000070B504460E46074B002503600B
:1013780040F80C5FFFF700FD30462671FFF7EEFDE1
:10138800A560204670BD00BFAC2E0A080079FFF7A3
:10139800EDBD10B50446FFF70FFDE0602368204659
:1013A8005B699847002808DAFFF706FDE368C01A6A
:1013B800A3689842F2D34FF0FF3010BD2DE9F041F9
:1013C80080460D460C468F18BC42A4EB050607D094
:1013D8004046FFF7DEFF002802DB04F8010BF3E7C5
:1013E8003046BDE8F08100004FF69C7337B50D4CD0
:1013F800002563804FF6FF732846A3802570FFF70A
:101408004DFE02A840F8045D2A462946FFF7BCFCB9
:10141800019B1E2B04D10323237011236580A38015
:1014280003B030BD5406002037B502AC036804F899
:10143800011DDD6B012247F230532146A84703B056
:1014480030BD10B40368DC6B47F23053A44610BCBF
:10145800604737B502AC036804F8011DDD6B21460F
:1014680013460122A84703B030BD704770470020DB
:10147800704710B50446FEF70EFE204610BDFEF775
:101488000ABE00002DE9F0431F4603688FB0DB6AEF
:1014980006460C4690469847134B186803681B6825
:1014A8009847F0B102A8FFF7BBFE204601F06CF99F
:1014B8000023009381B23B4603AA2046FFF7DEFDD6
:1014C80078B9336809ADD3F82090084B03AC08937A
:1014D8000FCC0FC5236842462B7008A93B463046FF
:1014E800C8470FB0BDE8F083CC2F0A08B82D0A080A
:1014F80010B5044603689B689847A368013BA3603E
:101508002BB923682046BDE81040DB68184710BD9A
:1015180070B5044606464D69044B8C3544F8043BC7
:101528000FCD0FC42B683046237070BDB82D0A0844
:1015380010B543690446B3F88620B3F884309A425C
:1015480005D06269B2F884301344187910BD036875
:101558001B6998470028F4D14FF0FF3010BD10B533
:1015680043690446B3F88620B3F884309A4208D019
:101578006269B2F88430591CA2F8841013441879AF
:1015880010BD03681B6998470028F1D14FF0FF3060
:1015980010BD10B504692068FFF7A8FC10B12068D9
:1015A800FFF7C4FC2046BDE81040FEF774BDF8B54F
:1015B80043691746B3F88620B3F8843005469A4243
:1015C8000E4606D103681B69984710B94FF0FF34DF
:1015D80014E069693046B1F88430B1F8864019449E
:1015E800E41ABC4228BF3C460431224601F086F882
:1015F8006A69B2F884302344A2F884302046F8BDE2
:1016080042690023A2F884304269A2F88630704704
:1016180038B542690446B2F886301BB1B2F8842066
:101628009A420BD0184B186803681B68984718B380
:1016380063691868FFF75AFC18B91DE0FFF7E0FF67
:10164800F0E76069B0F886107F2915D8051DC1F14B
:101658008002002329440068FFF760FC00280BDDA6
:101668006369B3F886200AB9A3F884206269B2F8DE
:1016780086301844A2F886006269B2F88630B2F85B
:101688008400181A38BD00BFCC2F0A0838B5436942
:1016980004461868FFF72AFC18B163691868FFF751
:1016A80045FC6569FFF74AFC286060691122002142
:1016B8008C3001F02EF82046BDE83840FFF7A0BF77
:1016C800F8B54FF47A738360174B002646600360C1
:1016D800466186610446A0200F46FEF7DAFC0546FF
:1016E80038B10760A0F88460A0F886608830FFF7FA
:1016F80097FD1420FEF7CDFC034628B10122426075
:1017080082600A4A05610260A0696561A36128B127
:101718004368013B43600BB9FFF7EAFE2046FFF739
:101728006FFF2046F8BD00BFD82E0A08BC2E0A0855
:1017380010B50446FFF702FC01462046FFF7C0FF3C
:10174800204610BD2DE9F041984603688AB0DB6A4F
:1017580006460C46154698472F4B186803681B68C1
:101768009847002855D02B4606220121CDF8008045
:1017780002207769FFF7C2FB202338600293002715
:10178800736903971B6801200193244B02AA0093F5
:1017980023493B46FFF77AFC73691868FFF7A6FBF5
:1017A800002836D03046FFF72BFF0223ADF808306B
:1017B8002B0A8DF80A30E3794FF4FA508DF80C3083
:1017C800A3798DF80B508DF80D3063798DF80E30B4
:1017D80014F8043F8DF80F30FFF748FC736905468D
:1017E800102202A91868FFF791FB80462846FFF7E8
:1017F8003DFC0FCC75698C350FC523682B70B8F18B
:10180800000F05D033683046DB6A9847384600E059
:1018180001200AB0BDE8F081CC2F0A08232F0A085E
:101828001C2F0A0810B5436904461868FFF75EFBC9
:1018380008B9002010BD074B186803681B68984753
:101848000028F6D063691868FFF748FBB0FA80F003
:10185800400910BDCC2F0A082DE9F3410025456049
:1018680004460E4617469846FFF7DCFF60B16069EC
:101878000195CDF800802B463A4631460068FFF7BF
:1018880065FB002803DA01E04FF0FF30606002B02A
:10189800BDE8F08138B50446FFF7C4FF00BB6369B3
:1018A800B3F88610B3F88420914219D11868FFF76D
:1018B8001DFB28B163691868FFF710FB012801D0E8
:1018C80000250EE0236820461B699847002814BFAE
:1018D8000125002505D123682046DB6A984700E0EA
:1018E8000125284638BD08B5FFF79CFF003018BF12
:1018F800012008BD024B1A68024B1A60704700BFEE
:10190800240300205C060020704741747047007C67
:10191800FFF76CBB007CFFF741BB007CFFF74EBBB9
:10192800007CFFF743BB007CFFF750BB10B50446B3
:10193800FEF7B1FB204610BD70B5457C04460E4647
:1019480025B9007CFFF752FB002805DD3146207CD5
:10195800BDE87040FFF71ABB284670BD10B50446B5
:1019680008461146002262604FF47A72A260054A66
:1019780020742260012262741A46FFF7FFFA20469B
:1019880010BD00BF682F0A08007CFFF727BB0000C6
:1019980038B50C4D296811F0010411D12846FEF71D
:1019A8007CFB68B1084A2146084B0948FFF7D6FF77
:1019B8002846FEF777FB074A0749054800F074FAFE
:1019C800034838BDF8060020FC06002074060020F5
:1019D800600600209003002011190A08417470471E
:1019E80070470021007CFFF729BB0121007CFFF72D
:1019F80025BB007CFFF71ABB007CFFF70FBB38B58F
:101A08000446007C0D46FFF711FB002801DC607CD2
:101A180020B12946207CFFF719FB012038BD007C46
:101A2800FFF71CBB10B50446FEF735FB204610BD7A
:101A380010B50446002363604FF47A73A360054B26
:101A4800084623600123217463741146FFF7D6FA10
:101A5800204610BD982F0A080022007CFFF7D6BA4E
:101A680010B504461422002100F053FE054B204611
:101A78006360054BE36040F20113238181232382D5
:101A880010BD00BF050800208407002030B50E4DAA
:101A980087B001A8FFF7E4FF296811F0010410D10D
:101AA8002846FEF7FAFA60B101AA21460748FFF76F
:101AB800BFFF2846FEF7F6FA054A0649034800F034
:101AC800F3F9024807B030BD80070020080900205C
:101AD80090030020E9190A0810B5044614220021D1
:101AE80000F017FE054B20466360054BE36040F2AB
:101AF800011323818123238210BD00BFB809002070
:101B08002009002010B50E4C86B001A8FFF7E4FFAD
:101B18002368DB0710D42046FEF7BFFA60B101AA9C
:101B280001210848FFF784FF2046FEF7BBFA064A62
:101B38000649044800F0B8F9024806B010BD00BFD5
:101B48001C090020A409002090030020E9190A08B4
:101B58007047002211461046FFF7D4BA0348044BD9
:101B6800044A0549036000F09FB900BFBC0A002081
:101B7800C82F0A0890030020591B0A0808B5144BFF
:101B880033B1FFF783FF03681B699847002816DC09
:101B9800104B33B1FFF7FCFE03681B699847002818
:101BA80010DC0D4B0BB1AFF300800C4B7BB1FFF792
:101BB800A9FF03681B699847002806DC08BDAFF336
:101BC8000080E5E7AFF30080EBE7AFF3008008BDE6
:101BD80000000000000000000000000000000000FD
:101BE80008B5FFF7CBFFFFF7E7F8014B186008BD12
:101BF800C80A00200248034A0349121A00F07EBDB1
:101C0800004002400440024080310A0807B5002322
:101C180000931A466FF07701FFF75AFA03B05DF8A0
:101C280004FB000007B543880A2B08D0502B09D1C4
:101C3800094B1B683BB103B05DF804EB1847FFF78D
:101C4800E5FF06E0002300931A466FF07701FFF7DF
:101C58003FFA03B05DF804FBC00A002038B5104C09
:101C6800104D2368AB42104B0CBF012200221A70A2
:101C780002D0FFF7BFFF2560FFF78EF800F052FD96
:101C88000A4B1BB1FFF788F8AFF300800021074823
:101C9800FFF730FABDE8384000210548FFF70EBAD3
:101CA800004002401E1C279AC40A002000000000C1
:101CB8002D1C0A0810B504460F48FFF767FB28B12A
:101CC800A4F10D03022B01D8002010BD00F092F8FA
:101CD800FFF782FA08B1012CF6D9FFF759FEFFF792
:101CE80053FE18B1A4F11203012BEDD9172C8CBFA8
:101CF8000020012010BD00BFFC0A0020172838B5BD
:101D080004460D460AD8FF2908D0FFF7D3FF28B1AB
:101D180029462046BDE83840FFF766B838BD38B5D3
:101D280004460D46FFF768F8FF2810D0062804D8A7
:101D38004D2323FA00F0C30709D42046FFF7BAFF62
:101D480028B129462046BDE83840FFF75DB838BDC0
:101D580010B50446FFF750F80438C0B2012808D976
:101D68002046FFF7A7FF20B12046BDE81040FFF747
:101D780053B8002010BD10B5044609289CBF0A348A
:101D8800A4B22046FFF796FF50B103212046FFF783
:101D980023F8032804D12046BDE81040FFF74CB8CB
:101DA800002010BD38B504460D46FFF783FFF0B19B
:101DB80004212046FFF710F8042805D1A9B22046CF
:101DC800BDE83840FFF730B802212046FFF704F895
:101DD80002280CD12046FFF70FF8012801D004286B
:101DE80005D129462046BDE83840FFF735B838BD4B
:101DF800FFF72AB838B50B4D296811F001040FD147
:101E08002846FEF74AF958B121460748FFF7D2F9A4
:101E18002846FEF747F9054A0549034800F044F803
:101E2800014838BDCC0A0020D00A002090030020C9
:101E380065110A0813B5084C00231A461946009381
:101E48002046FFF709FA2046044A054902B0BDE8D2
:101E5800104000F029B800BFE40A002090030020D9
:101E6800E9110A0870B50C4C0C4E0D4D00212046A6
:101E7800FFF778FA20460B4C3246294600F014F852
:101E880001212046FFF76EFA324629462046BDE872
:101E9800704000F009B800BFFC0A00209003002041
:101EA8005D130A080C0B00200B460146184600F08B
:101EB80017BC0000244B1A68D0075CBF01221A60C7
:101EC800224B1A68D1075CBF01221A60204B1A689E
:101ED800D2075CBF01221A601E4B1A68D0075CBF8C
:101EE80001221A601C4B1A68D1075CBF01221A60D4
:101EF8001A4B1A68D2075CBF01221A60184B1A687D
:101F0800D0075CBF01221A60164B1A68D1075CBF64
:101F180001221A60144B1A68D2075CBF01221A60AA
:101F2800124B1A68D0075CBF01221A60104B1A685E
:101F3800D1075CBF01221A600E4B1A68D2075CBF3A
:101F480001221A60704700BF480B0020440B002094
:101F5800400B00203C0B0020380B0020340B0020E5
:101F6800300B00202C0B0020280B0020240B002015
:101F7800200B00201C0B0020184B1A68D1075CBFEF
:101F880001221A60164B1A68D2075CBF01221A6038
:101F9800144B1A68D0075CBF01221A60124B1A68EA
:101FA800D1075CBF01221A60104B1A68D2075CBFC8
:101FB80001221A600E4B1A68D0075CBF01221A6012
:101FC8000C4B1A68D1075CBF01221A600A4B1A68C9
:101FD800D2075CBF01221A60704700BF680B00205F
:101FE800640B0020600B00205C0B0020580B0020C5
:101FF800540B0020500B00204C0B0020184B1A6883
:10200800D1075CBF01221A60164B1A68D2075CBF61
:1020180001221A60144B1A68D0075CBF01221A60AB
:10202800124B1A68D1075CBF01221A60104B1A685C
:10203800D2075CBF01221A600E4B1A68D0075CBF3A
:1020480001221A600C4B1A68D1075CBF01221A6082
:102058000A4B1A68D2075CBF01221A60704700BF9A
:10206800880B0020840B0020800B00207C0B0020B4
:10207800780B0020740B0020700B00206C0B0020E4
:10208800244B1A68D0075CBF01221A60224B1A68D9
:10209800D1075CBF01221A60204B1A68D2075CBFC7
:1020A80001221A601E4B1A68D0075CBF01221A6011
:1020B8001C4B1A68D1075CBF01221A601A4B1A68B8
:1020C800D2075CBF01221A60184B1A68D0075CBFA0
:1020D80001221A60164B1A68D1075CBF01221A60E8
:1020E800144B1A68D2075CBF01221A60124B1A6897
:1020F800D0075CBF01221A60104B1A68D1075CBF79
:1021080001221A600E4B1A68D2075CBF01221A60BE
:10211800704700BFB80B0020B40B0020B00B0020A4
:10212800AC0B0020A80B0020A40B0020A00B002063
:102138009C0B0020980B0020940B0020900B002093
:102148008C0B002081F0004102E000BF83F00043C7
:1021580030B54FEA41044FEA430594EA050F08BF3A
:1021680090EA020F1FBF54EA000C55EA020C7FEAFE
:10217800645C7FEA655C00F0E2804FEA5454D4EB7B
:102188005555B8BF6D420CDD2C4480EA020281EA45
:10219800030382EA000083EA010180EA020281EA7D
:1021A8000303362D88BF30BD11F0004F4FEA0131CF
:1021B8004FF4801C4CEA113102D0404261EB4101DE
:1021C80013F0004F4FEA03334CEA133302D0524264
:1021D80063EB430394EA050F00F0A780A4F1010420
:1021E800D5F1200E0DDB02FA0EFC22FA05F280185A
:1021F80041F1000103FA0EF2801843FA05F3594140
:102208000EE0A5F120050EF1200E012A03FA0EFCBE
:1022180028BF4CF0020C43FA05F3C01851EBE371E8
:1022280001F0004507D54FF0000EDCF1000C7EEB05
:1022380000006EEB0101B1F5801F1BD3B1F5001F43
:102248000CD349085FEA30004FEA3C0C04F1010462
:102258004FEA445212F5800F80F09A80BCF1004F8B
:1022680008BF5FEA500C50F1000041EB045141EA0D
:10227800050130BD5FEA4C0C404141EB010111F40E
:10228800801FA4F10104E9D191F0000F04BF0146B9
:102298000020B1FA81F308BF2033A3F10B03B3F197
:1022A80020020CDA0C3208DD02F1140CC2F10C0227
:1022B80001FA0CF021FA02F10CE002F11402D8BF85
:1022C800C2F1200C01FA02F120FA0CFCDCBF41EA51
:1022D8000C019040E41AA2BF01EB0451294330BD20
:1022E8006FEA04041F3C1CDA0C340EDC04F11404FD
:1022F800C4F1200220FA04F001FA02F340EA0300D4
:1023080021FA04F345EA030130BDC4F10C04C4F119
:10231800200220FA02F001FA04F340EA03002946F9
:1023280030BD21FA04F0294630BD94F0000F83F443
:10233800801306BF81F480110134013D4EE77FEA26
:10234800645C18BF7FEA655C29D094EA050F08BF72
:1023580090EA020F05D054EA000C04BF1946104653
:1023680030BD91EA030F1EBF0021002030BD5FEA97
:10237800545C05D14000494128BF41F0004130BDBF
:1023880014F580043CBF01F5801130BD01F0004513
:1023980045F0FE4141F470014FF0000030BD7FEA86
:1023A800645C1ABF194610467FEA655C1CBF0B4681
:1023B800024650EA013406BF52EA033591EA030F98
:1023C80041F4002130BD00BF90F0000F04BF002190
:1023D800704730B54FF4806404F132044FF00005C3
:1023E8004FF0000150E700BF90F0000F04BF00213C
:1023F800704730B54FF4806404F1320410F00045A2
:1024080048BF40424FF000013EE700BF42004FEA9C
:10241800E2014FEA31014FEA02701FBF12F07F4319
:1024280093F07F4F81F06051704792F0000F14BF16
:1024380093F07F4F704730B54FF4607401F000455A
:1024480021F0004120E700BF50EA010208BF7047B1
:1024580030B54FF000050AE050EA010208BF7047A6
:1024680030B511F0004502D5404261EB41014FF40F
:10247800806404F132045FEA915C3FF4DCAE4FF013
:1024880003025FEADC0C18BF03325FEADC0C18BFFA
:10249800033202EBDC02C2F1200300FA03FC20FA4B
:1024A80002F001FA03FE40EA0E0021FA02F1144498
:1024B800C1E600BF80F0004002E000BF81F00041AB
:1024C80042001FBF5FEA410392EA030F7FEA226CD2
:1024D8007FEA236C6AD04FEA1262D2EB1363C1BF62
:1024E800D218414048404140B8BF5B42192B88BFD1
:1024F800704710F0004F40F4000020F07F4018BFF4
:10250800404211F0004F41F4000121F07F4118BF13
:10251800494292EA030F3FD0A2F1010241FA03FCBB
:1025280010EB0C00C3F1200301FA03F100F00043A3
:1025380002D5494260EB4000B0F5000F13D3B0F16B
:10254800807F06D340084FEA310102F10102FE2ADA
:1025580051D2B1F1004F40EBC25008BF20F001004A
:1025680040EA03007047490040EB000010F4000FF8
:10257800A2F10102EDD1B0FA80FCACF1080CB2EB8B
:102588000C0200FA0CF0AABF00EBC25052421843EA
:10259800BCBFD0401843704792F0000F81F400018F
:1025A80006BF80F400000132013BB5E74FEA410362
:1025B8007FEA226C18BF7FEA236C21D092EA030FCE
:1025C80004D092F0000F08BF0846704790EA010F48
:1025D8001CBF0020704712F07F4F04D1400028BF75
:1025E80040F00040704712F100723CBF00F5000057
:1025F800704700F0004343F0FE4040F4000070478D
:102608007FEA226216BF08467FEA23630146420238
:1026180006BF5FEA412390EA010F40F4800070474B
:102628004FF0000304E000BF10F0004348BF4042F1
:102638005FEA000C08BF704743F0964301464FF02D
:1026480000001CE050EA010208BF70474FF0000389
:102658000AE000BF50EA010208BF704711F00043CA
:1026680002D5404261EB41015FEA010C02BF84469A
:102678000146002043F0B64308BFA3F18053A3F5F9
:102688000003BCFA8CF2083AA3EBC25310DB01FA40
:1026980002FC634400FA02FCC2F12002BCF1004FC4
:1026A80020FA02F243EB020008BF20F00100704755
:1026B80002F1200201FA02FCC2F1200250EA4C00A9
:1026C80021FA02F243EB020008BF20EADC707047EF
:1026D8000A22002100F0FAB80A22002100F0F6B818
:1026E80010B5054C13462CB10A4601460220AFF33B
:1026F800008010BD204610BD0000000010B5431E2C
:102708000A44914204D011F8014B03F8014FF8E74D
:1027180010BD03460244934202D003F8011BFAE7B6
:102728007047000038B5124B05461C68A36BD3B937
:102738001820FEF7EFFC43F20E33A06303804AF63D
:10274800CD33438041F2342383804EF26D63C380DE
:102758004DF6EC630381052343810B23838101221A
:102768000023C0E90423A36B00221D615A6138BD10
:102778008C03002010F8012B11F8013B012A28BF17
:102788009A42F7D0D01A7047034613F8012B002A53
:10279800FBD1181A01387047034610B542B111F839
:1027A800014B013A03F8014B002CF7D11A4400E021
:1027B80010BD934202D003F8014BFAE710BD0000A8
:1027C8002DE9F0470F4680463F48D0F800903D4637
:1027D80015F8014B09EB0400407800F0080000F000
:1027E800FF0608B12F46F2E72D2C03D1BD1C7C78DB
:1027F800012603E02B2C04BF7C78BD1C13B1102BE1
:102808000AD15BE0302C57D1287800F0DF00582837
:102818004DD16C7810230235002E14BF4FF0004CB8
:102828006FF0004CBCFBF3FA0027384603FB1ACCC8
:1028380009EB040E9EF801E01EF0040F01D0303CB5
:102848000BE01EF0030E1BD0BEF1010F0CBF4FF0C2
:10285800370E4FF0570ECEEB0404A34210DDB7F14C
:10286800FF3F0AD0504506D801D1644503DC03FB7D
:102878000040012701E04FF0FF3715F8014BD7E77B
:102888007B1C0CD1002E4FF0220314BF4FF00040E8
:102898006FF00040C8F800302AB9BDE8F08706B1EB
:1028A800404272B107B1691E1160BDE8F08730245B
:1028B800002BB1D10823AFE70A23ADE7302CA3D012
:1028C800AAE7BDE8F08700BF2803002013460A46A0
:1028D800014602480068FFF773BF00BF8C03002061
:1028E8001D000A085D000A0889000A088D000A0808
:1028F80000000000626C6E6B696E6600766572009F
:10290800302E352E3400682D626561740031300038
:10291800627566662D696E00313032340064657602
:10292800005061727469636C652050686F746F6ED3
:10293800006275696C640041707220203620323064
:1029480031392031353A34303A35390000002569BB
:1029580000256C6900696E006F75740070776D00F2
:10296800647700617700626C796E6B2D636C6F75AC
:10297800642E636F6D0076770025322E3366000073
:10298800430B0A08430B0A08430B0A08430B0A08BF
:10299800430B0A08430B0A08430B0A08430B0A08AF
:1029A800430B0A08430B0A08430B0A08430B0A089F
:1029B800430B0A08430B0A08430B0A08430B0A088F
:102D8800000000000000000065110A08AF110A08E1
:102D980087110A0867110A088F110A0897110A088B
:102DA8009F110A08A7110A0800000000000000008F
:102DB800F7110A08E9110A08EB110A086C6E006697
:102DC8006E00636F64650064657461696C000D0A68
:102DD80000253031307520005D20002564002C204E
:102DE8000028293A2000205B00636F6465203D209D
:102DF8000064657461696C73203D200062617564CC
:102E08000053657269616C0055534253657269617C
:102E18006C31007479706500706172616D00636D6A
:102E28006400696400686E64007374726D0066699A
:102E38006C74006C766C0061646448616E646C65E7
:102E4800720072656D6F766548616E646C657200BC
:102E5800656E756D48616E646C657273004A534F98
:102E68004E53747265616D4C6F6748616E646C6532
:102E78007200617070006E6F6E65007472616365D8
:102E880000696E666F007761726E006572726F72AC
:102E98000070616E696300616C6C000000000000E6
:102EA800000000005D130A085F130A080000000014
:102EB8000000000075140A087B140A089B150A080C
:102EC80087140A0877140A080000000000000000B0
:102ED800CD000A080D010A0831140A084B140A0823
:102EE80019160A0867150A0839150A0873140A0812
:102EF8004D170A088D140A08B7150A0895160A0806
:102F08009D180A08EF180A085B140A0861180A08CD
:102F180019150A08776972696E6700544350436C43
:102F280069656E7420736F636B65743D2578005A0C
:102F380000252B3033643A253032750025592D256C
:102F48006D2D25645425483A254D3A2553257A0098
:102F580061736374696D6500000000000000000083
:102F680011190A0835190A0841190A0889120A08A4
:102F78001D190A0829190A0823190A082F190A0805
:102F880013190A0817190A080000000000000000B9
:102F9800E9190A082D1A0A08071A0A0889120A08DC
:102FA800011A0A08EB190A08F3190A08271A0A0865
:102FB800FB190A08E5190A080000000000000000D3
:102FC8005B1B0A08BC0A00200020202020202020AB
:102FD80020202828282828202020202020202020C1
:102FE80020202020202020202088101010101010D1
:102FF800101010101010101010040404040404041D
:1030080004040410101010101010414141414141B6
:103018000101010101010101010101010101010198
:1030280001010101101010101010424242424242A8
:103038000202020202020202020202020202020268
:103048000202020210101010200000000000000010
:103058000000000000000000000000000000000068
:103068000000000000000000000000000000000058
:103078000000000000000000000000000000000048
:103088000000000000000000000000000000000038
:103098000000000000000000000000000000000028
:1030A8000000000000000000000000000000000018
:1030B8000000000000000000000000000000000008
:1030C80000000000000000000000000000000000F8
:1030D80000000000000000000000000000000000E8
:1030E80000000000000000000000000000000000D8
:1030F80000000000000000000000000000000000C8
:1031080000000000000000000000000000000000B7
:1031180000000000000000000000000000000000A7
:103128000000000000000000000000004300000054
:10313800BD0A0A08250B0A083D0B0A08710B0A0884
:10314800030D0A08710D0A0879120A0841130A08C2
:10315800F1130A08FD180A08651B0A083D1E0A082B
:103168006D1E0A08BD1E0A08811F0A0805200A08E4
:0831780089200A080000000094
:04318000000000004B
:103184003734646162373034643138323430363144
:1031940062623433636630336466383636323434CC
:1031A40000000000582F0A08D02F0A080000000071
:1031B400D4300A08F4300A0814310A080000000068
:1031C40000000000000000000000000034310A0884
:1031D40000000000000000000000000000000000EB
:1031E40000000000000000000000000000000000DB
:1031F40000000000000000000000000000000000CB
:103204000000000000000000000000002C0300206B
:10321400FFFFFFFF00000102030405060708090A77
:103224000B0C0D0E0F101112131415161718191A72
:083234001B1C1D1E1F202800B9
:04323C00785634127A
:04000005080A0018CD
:00000001FF
