:02000004080AE8
:1000000000000A0808480A0800000500060005016B
:080010000402EA0300000000F5
:10001800F8420A0809480A4908B5884205D0094A39
:10002800824202D0121A04F01FF90748074A002139
:10003800121A04F024F9064808BD00BF0003002086
:1000480074470A086C0300206C030020AC090020E8
:10005800AC09002070B501F013FB074B074C1E4696
:10006800E41AA4080025A54204D056F8253098477C
:100078000135F8E770BD00BF2C470A086C470A082D
:1000880000F014B808B500F05BF8BDE8084001F0CE
:10009800B9BA00F07BBE00F081BE0078B0FA80F0FB
:1000A80040097047012303707047000038B501F01C
:1000B800FFF94FF4165101F0E1F947F22F55194CA9
:1000C80001F0F6F903681B69984790B900F028FD1C
:1000D800A8420ED801F0ECF9134900F0B2FF00F085
:1000E8001FFD206000F03AFE4FF47A7000F066FEC3
:1000F800E6E701F0DDF90D4900F0A3FF01F0D8F9BA
:100108000B4900F08BFF01F0D3F90A4900F099FF81
:1001180001F0CEF9084900F094FFBDE838400748DF
:1001280000F0D9B9B80800200C430A0824430A088B
:1001380050430A08D2440A085E430A0874030020A0
:1001480073B5614D01F0B4F9604900F067FF01F043
:10015800AFF90A22296800F0CCFF01F0A9F95C493F
:1001680000F05CFF01F0A4F95A4900F057FF4FF482
:100178007A71594800F09CFA0730072825D8DFE83B
:1001880000F0201C1814100C080401F091F95349D0
:100198001EE001F08DF952491AE001F089F9514940
:1001A80016E001F085F9504912E001F081F94F4954
:1001B8000EE001F07DF94E490AE001F079F94D4968
:1001C80006E001F075F94C4902E001F071F94B497C
:1001D80000F037FF01F06CF9494900F01FFF01F00A
:1001E80067F906463C4800F0A1FA03F02FFA02240A
:1001F80002460B460094304601F02CF801F058F9FD
:10020800404900F00BFF01F053F90646324800F070
:1002180073FA03F01BFA009402460B46304601F0CD
:1002280019F801F045F9384900F0F8FE01F040F9F5
:100238000646294800F094FA03F008FA00940246AA
:100248000B46304601F006F801F032F92F4900F06C
:10025800E5FE01F02DF906461F4800F0A9FA03F063
:10026800F5F9009402460B46304600F0F3FF01F022
:100278001FF9274900F0D2FE01F01AF90646164880
:1002880000F0BEFA009402460B46304600F0E2FF4A
:1002980001F00EF91F4900F0C1FE01F009F9064608
:1002A8000D4800F015FB009402460B46304600F05E
:1002B800D1FF40F6C4102B6801332B6002B0BDE8B3
:1002C800704000F07BBD00BF7003002027450A087E
:1002D8006E430A0895430A0874030020A3430A08DA
:1002E800A6430A08BD430A08D8430A08F8430A087F
:1002F80014440A0826440A0842440A0856440A08CC
:1003080064440A0873440A0886440A0899440A0897
:10031800AB440A08BC440A0810B500F009FCBDE863
:10032800104000230B220421014800F0D1B800BF7F
:100338007403002003685A68986812F0010F4FEAA6
:10034800620218BF81581B68104418BFCB58184761
:1003580070B5044600F0DCFB41F27072A36BA06339
:10036800C31A93420BD96FF00103E362032384F8A5
:100378002930B4F84400BDE8704000F077BD94F827
:10038800292002F0FF0112B1012920D070BD402BB5
:1003980003D8A26BD31AA36370BDA3F17E025D2AB2
:1003A800DDB205D8236C5A1C22641D70012371E04C
:1003B800B4F8440000F05AFD226C6FF00203E362C7
:1003C800032384F82930531C2364157070BDA3F1EE
:1003D8003D025D2A4FD894F836106E2B214491F8CF
:1003E80030204FEA4202D2B281F8302008D994F87E
:1003F8003620224492F8301041F0010182F8301082
:10040800226CDBB2511C2164137094F8353003F070
:10041800FF054BBB072384F8353094F83630013399
:10042800DBB2052B84F8363036D1B4F8440000F03E
:100438001DFD94F8306094F8312094F8323032443D
:1004480094F83300134494F834100344DBB28B421D
:1004580002D04FF0FF331BE00223E56284F8293015
:10046800012384F83C3070BD94F83530013BDBB291
:1004780084F8353070BD606C092B80B204D800F068
:10048800F5FC6FF0050303E000F0F0FC6FF00303E8
:10049800E362032384F8293070BD022A38B5044684
:1004A80005D0032A0FD0012A10D10B6809E00C20CF
:1004B8000D68FFF7EEFD034618B195E8070083E8DD
:1004C8000700236002E00068FFF7E5FD002038BD63
:1004D80041648264704738B504460023C36403232B
:1004E800012580F829306FF0060380F85050C36268
:1004F8002946B0F8440001F013F92946B4F844003D
:10050800BDE8384001F01DB970B5044686B000F06A
:1005180007FB94F8503023B9E36CC31AB3F5FA6FAC
:100528000AD394F82930032B08D094F82930022BE9
:1005380004D06FF004005FE002205DE000231A465B
:1005480084F85030E06484F82930E2540133292BD0
:100558004FF00005F9D1072384F8305084F8315062
:1005680084F8325084F8335084F8345084F83530A5
:1005780000236365A3650121B4F84400246484F86A
:10058800365001F0CDF82946B4F8440001F0D9F806
:10059800A36C0B2B03D1122000F010FC03E040F2F7
:1005A800DC5000F0ADFA0021B4F8440001F0B8F8CE
:1005B80000F0AEFA0025A0630C20B4F8446004955E
:1005C800FFF767FD18B10D4B846080E828000C4BDD
:1005D800029005930B4B022204930023009302A977
:1005E8004FF0FF33304600F083FC049B1BB102A997
:1005F800032208469847012006B070BD59030A082F
:100608003D030A08A3040A0810B5836C04460B2BA3
:1006180030D039DB153B012B36D890F8300094F8F0
:10062800313003EB002080B202F0FEFF18A3D3E9BB
:10063800002303F05FF803F055FB94F8323060654F
:1006480094F8320013F0800F94F833301BBF00F099
:100658007F0003EB002003EB0020404208BF80B27C
:1006680002F0E2FF0AA3D3E9002303F043F803F002
:1006780039FB08E090F8300003F03AFC606594F824
:10068800320003F035FCA065002384F83C3010BD2F
:100698009A9999999999B93F90F82930022B05D0E0
:1006A80090F82900033818BF0120704700207047D0
:1006B800F8B50D460446FFF727FF00F031FA074664
:1006C8000C4E2046FFF7E8FF58B125B100F028FA94
:1006D800C01B854205D900F023FA306000F03EFBCC
:1006E800EFE72046FFF7D8FF10B16FF00203E3628F
:1006F800E06AF8BDB808002010B590F82930044623
:10070800032B03D1C06A03F0F7FB10BD90F8293022
:10071800022B06D190F83C300BB1FFF775FFA06DA6
:1007280010BD014810BD00BF0000A0C010B590F872
:1007380029300446032B03D1C06A03F0DDFB10BD4A
:1007480090F82930022B06D190F83C300BB1FFF716
:100758005BFF606D10BD014810BD00BF0000A0C068
:1007680010B590F829300446032B03D1C06A03F072
:10077800C3FB10BD90F82930022B10D190F83C3003
:100788000BB1FFF741FF0749A06D03F009FC0649CB
:1007980003F0BAFC4FF0844103F0FAFA10BD0348A5
:1007A80010BD00BF000010410000A0400000A0C024
:1007B80010B590F829300446032B03D1C06A03F022
:1007C8009BFB10BD90F82930022B0FD190F83C30DC
:1007D8000BB1FFF719FFA06D02F038FF04A3D3E9AE
:1007E800002302F0D5FD03F07DFA10BD024810BDCC
:1007F80066666666661271400000A0C000000000D0
:100808002DE9F84390F829300446032B04D1C06A37
:1008180002F00AFFBDE8F88390F82930022B46D190
:1008280090F83C300BB1FFF7EFFEA06D02F00EFF21
:100838000646606D0F4602F009FF0022224B03F0C6
:1008480083F801F041F91CA3D3E9002304460D46BF
:100858003046394602F04EFF19A3D3E900238046FB
:1008680089463046394602F093FD02460B4640461B
:10087800494603F069F822462B4602F089FD10A389
:10088800D3E9002306460F4602F034FF32460446F9
:100898000D4609A1D1E900013B4602F077FD024669
:1008A8000B462046294603F04FF8BDE8F8830020A0
:1008B8000649BDE8F88300BF4C378941604531409F
:1008C8006666666666B66D4000005940000014C052
:1008D8002DE9F04790F829308246032B04D1C06AED
:1008E80002F0A2FEBDE8F08790F82930022B40F014
:1008F800AB8090F83C300BB1FFF786FEDAF8580071
:1009080002F0A4FE52A3D3E9002302F041FD0246FF
:100918000B4651A1D1E9000103F016F80022644BFF
:1009280004460D4602F032FD4DA3D3E900230646E6
:100938000F4602F0DFFE804689462046294601F030
:1009480043F949A3D3E9002302F0D4FE42464B46BB
:1009580002F01EFD2246804689462B460020544957
:1009680002F0F2FF02460B460020514902F00EFD4C
:100978003FA3D3E9002302F0BDFE02460B46002048
:100988004C4901F0A3F90022494B02F0FFFC3AA3BD
:10099800D3E9002302F0AEFE42464B4602F0F8FCD3
:1009A80037A3D3E9002304460D463046394602F002
:1009B800A1FE02460B4600203E4901F087F90022BD
:1009C8003B4B02F0E3FC30A3D3E9002302F092FE94
:1009D80022462B4602F0DCFC2DA3D3E9002302F0CB
:1009E800D7FC0022344B02F0D1FC02460B46002013
:1009F800304901F06BF904460D46DAF8540002F06C
:100A080025FE22462B4602F075FE23A3D3E90023D8
:100A180002F09AFF01F058F821A3D3E90023064613
:100A28000F4602F067FE324604460D461EA1D1E984
:100A380000013B4602F0AAFC02460B462046294626
:100A480002F082FFBDE8F08700201C49BDE8F0876E
:100A580066666666661271406666666666527740C6
:100A6800B1C403CAA69C1FC0CDAFE600C11C144088
:100A7800E3A59BC420B02640B13D4236248B82BEFC
:100A8800037D224F92EE0BC0630333F0EDA7803F46
:100A98001B549E40B40B0840CFA0A17F828BE33F3C
:100AA8005C8FC2F5283C6E40022B8716D98E3140E8
:100AB8000000F03F0000244000000840000014C07F
:100AC80000F036B800F034B800F032B800F030B8B2
:100AD80008B5024B1B681B6B019308BDD0010608C3
:100AE80008B5024B1B68DB6E019308BDB801060808
:100AF80008B5024B1B685B68019308BD9C0106089A
:100B080008B5024B1B68DB68019308BD9C01060809
:100B180008B5024B1B681B69019308BD9C010608B8
:100B280008B5024B1B685B69019308BD9C01060868
:100B380008B5024B1B681B68019308BDB001060885
:100B480008B5024B1B689B68019308BDB0010608F5
:100B580008B5024B1B68DB68019308BDB0010608A5
:100B680008B5024B1B681B69019308BDB001060854
:100B780008B5024B1B689B69019308BDB0010608C4
:100B880008B5024B1B68DB69019308BDB001060874
:100B980008B5024B1B681B6E019308BDAC01060823
:100BA80008B5024B1B685B6E019308BDAC010608D3
:100BB80008B5024B1B689B6E019308BDAC01060883
:100BC80008B5024B1B68DB6E019308BDAC01060833
:100BD80008B5024B1B681B6F019308BDAC010608E2
:100BE80008B5024B1B685B6F019308BDAC01060892
:100BF80008B5034B1B68D3F88030019308BD00008B
:100C0800AC01060808B5024B1B68DB69019308BDF7
:100C1800B401060808B5024B1B681B6A019308BD9E
:100C2800B401060808B5024B1B689B69019308BD0F
:100C3800C401060808B5024B1B685B6A019308BD2E
:100C4800C401060808B5024B1B689B6A019308BDDE
:100C5800C401060808B5024B1B68DB6A019308BD8E
:100C6800C401060808B5024B1B681B6B019308BD3D
:100C7800C401060808B5024B1B685B6B019308BDED
:100C8800C401060808B5024B1B689B6B019308BD9D
:100C9800C401060808B5024B1B681B6C019308BD0C
:100CA800C401060808B5024B1B681B68019308BD00
:100CB800D801060808B5024B1B685B68019308BD9C
:100CC800D801060808B5024B1B681B69019308BDCB
:100CD800D801060808B5024B1B685B69019308BD7B
:100CE800D801060808B5024B1B689B69019308BD2B
:100CF800D801060808B5024B1B68DB69019308BDDB
:100D0800D801060808B5024B1B681B6A019308BD89
:100D1800D801060808B5024B1B685B68019308BD3B
:100D2800A401060808B5024B1B685B69019308BD5E
:100D3800A401060808B5034B1B68D3F8903001934B
:100D480008BD0000A401060808B5034B1B68D3F8CA
:100D58009C30019308BD0000A401060808B5024BA9
:100D68001B689B68019308BDCC01060808B5024BB7
:100D78001B68DB6B019308BDCC01060808B5024B64
:100D88001B681B69019308BDC801060808B5024B1A
:100D98001B681B68019308BDA001060808B5024B33
:100DA8001B685B68019308BDA001060808B5024BE3
:100DB8001B68DB6A019308BDA00106080021FFF744
:100DC800B1BF10B58368044613B1032201469847A2
:100DD800204610BD7047F8B5064615460C468F18D4
:100DE800BC4206D0336814F8011B9B68304698470C
:100DF800F6E72846F8BD0022007CFFF7C9BE0021AF
:100E0800007CFFF7CDBE0021007CFFF7D1BE00219A
:100E1800007CFFF7D5BE0021007CFFF7D9BE10B5D6
:100E28000446FFF738F9204610BD000010B5044607
:100E380008464FF47A73A360044B00212074616064
:100E48002360FFF7D5FE204610BD00BFE0440A0826
:100E58000021007CFFF7C4BE826810B50AB900F013
:100E6800E8FCC368BDE810401847000070B50646A6
:100E7800FFF786FE074B53F826501C462DB128462F
:100E8800FFF79FFF2846FFF706F9002344F82630AE
:100E980070BD00BFD003002038B5002383608B6885
:100EA80004460D462BB102229847EB68E360AB6815
:100EB800A360204638BD0000F8B50C4B064653F831
:100EC80020500F461C462DB12846FFF77AFF2846CA
:100ED800FFF7E1F81020FFF7DCF8054610B13946B6
:100EE800FFF7DAFF44F826502846F8BDD003002063
:100EF800F0B50C46054685B017461E46FFF740FE7E
:100F080021462846FFF7D8FF0446B8B1002104233C
:100F18008E4203918DF80C30B4BF0B469DF82830F3
:100F28000246A4BF8DF80E3003AB009306493B463A
:100F38002846A8BF8DF80D60FFF71AFE201C18BFC1
:100F4800012005B0F0BD00BF610E0A08704710B55A
:100F58000446FFF7A0F8204610BDF8B50F4600F18B
:100F68000806051D002416F8011D0A22384600F05F
:100F78009CF8AE42044407D0002CF4D02E21384609
:100F880000F050F80444EEE72046F8BD10B59DF88F
:100F9800084044EA032343EA024242EA0161042387
:100FA8004160037510BD000037B5044D05609DF81C
:100FB80018500095FFF7EAFF03B030BD08450A084E
:100FC800014A024B1A607047CD450A0830040020D8
:100FD800F8B506460D468F180024BD420CD033687C
:100FE80015F8011B9B6830469847002801DB04442C
:100FF800F3E7002C08BF04462046F8BD70B5054647
:101008000C46084649B103F06BF92B6802462146A5
:101018002846BDE87040DB68184770BD08B5FFF783
:10102800EDFF08BD03689B68184738B50D210546D4
:10103800FFF7F8FF0A2104462846FFF7F3FF20448C
:1010480038BD38B50546FFF7D9FF04462846FFF7EF
:10105800ECFF204438BD012A98BF0A2230B50B4660
:101068008BB000218DF824100DF12304B3FBF2F5A9
:1010780005FB1233DBB2092B94BF30333733DBB2B5
:10108800214604F801392B46002DEFD1FFF7B6FFB2
:101098000BB030BD10B422B90368C9B29B6810BC4C
:1010A8001847D2B210BCFFF7D6BFFFF7F3BF2DE940
:1010B800F04107460E4615462AB9BDE8F0410368D7
:1010C800C9B29B6818470A2A02D1002901DA04E04C
:1010D800D2B2BDE8F041FFF7BEBF2D21FFF7A2FF56
:1010E8002A46044671423846FFF7B5FF2044BDE85A
:1010F800F081FFF7DCBF00002DE9F8431946804670
:10110800104617461E469DF8205002F08DFD08B186
:10111800474912E026F000444FF0FF32454B38466D
:10112800214602F081FD68B94FF0FF32414B384645
:10113800214602F05BFD28B93F494046FFF75EFFB4
:10114800BDE8F8834FF060423C4B3846314602F028
:1011580061FD08B13A49F0E74FF06042394B384633
:10116800314602F039FD0028F4D100220023384628
:10117800314602F031FD38B12D214046FFF752FFCC
:1011880006F10046044600E004462F494FF00009E6
:1011980000205FFA89F39D4206D900222B4B02F00A
:1011A800D3FB09F10109F4E73A46334602F0F0F8B7
:1011B8000F46064602F076FD0A2201468146404661
:1011C800FFF749FF04447DB3484602F01DFA024682
:1011D8000B463046394602F0D9F806460F464046D7
:1011E8001B49FFF70BFF0444184B002230463946D1
:1011F80002F080FA0F46064602F02CFD0A2201464C
:1012080081464046FFF753FF0444484602F00CFA73
:1012180002460B463046394602F0B8F8013D15F053
:10122800FF0506460F46DFD12046BDE8F88300BF1C
:10123800EC450A08FFFFEF7FF4450A08FFFFEF417E
:10124800F0450A08FFFFEFC10000E03F000024401E
:1012580022430A0837B59DF8181005460091FFF794
:101268004BFF04462846FFF7E0FE204403B030BD9C
:1012780010B50446FFF7A5FD204610BD034800231E
:101288008360034A034900F0CFBA00BF340400204A
:101298006C03002079120A08704710B50446FEF75F
:1012A800FAFE204610BD000070B504460E46074BF6
:1012B8000025036040F80C5FFFF70AFC30462671F2
:1012C800FFF7A0FCA560204670BD00BF00460A08D5
:1012D8000079FFF79FBC00004FF69C7337B50D4CA3
:1012E800002563804FF6FF732846A3802570FFF71B
:1012F80011FD02A840F8045D2A462946FFF7F0FBD5
:10130800019B1E2B04D10323237011236580A38026
:1013180003B030BD44040020024B1A68024B1A6027
:10132800704700BF000300204C0400207047417440
:101338007047007CFFF7AEBC007CFFF783BC007CE5
:10134800FFF790BC007CFFF785BC007CFFF792BCE0
:1013580010B50446FEF79FFE204610BD70B5457CCB
:1013680004460E4625B9007CFFF794FC002805DDED
:101378003146207CBDE87040FFF75CBC284670BD54
:1013880010B5044608461146002262604FF47A728E
:10139800A260054A20742260012262741A46FFF78F
:1013A80041FC204610BD00BF3C460A08007CFFF700
:1013B80069BC000038B50C4D296811F0010411D141
:1013C8002846FEF76AFE68B1084A2146084B0948D4
:1013D800FFF7D6FF2846FEF765FE074A0749054886
:1013E80000F022FA034838BDE8040020EC0400208D
:1013F80064040020500400206C03002035130A0800
:101408004174704770470021007CFFF76BBC0121D5
:10141800007CFFF767BC007CFFF75CBC007CFFF733
:1014280051BC38B50446007C0D46FFF753FC002834
:1014380001DC607C20B12946207CFFF75BFC0120A1
:1014480038BD007CFFF75EBC10B50446FEF723FEEE
:10145800204610BD10B50446002363604FF47A732C
:10146800A360054B08462360012321746374114669
:10147800FFF718FC204610BD6C460A080022007CC5
:10148800FFF718BC10B504461422002102F0F7FE3D
:10149800054B20466360054BE36040F2011323814E
:1014A8008123238210BD00BFF505002074050020AC
:1014B80030B50E4D87B001A8FFF7E4FF296811F099
:1014C800010410D12846FEF7E8FD60B101AA2146C3
:1014D8000748FFF7BFFF2846FEF7E4FD054A06491F
:1014E800034800F0A1F9024807B030BD700500209C
:1014F800F80600206C0300200D140A0810B50446F5
:101508001422002102F0BBFE054B20466360054B08
:10151800E36040F2011323818123238210BD00BFC1
:10152800A80700201007002010B50E4C86B001A8AF
:10153800FFF7E4FF2368DB0710D42046FEF7ADFD74
:1015480060B101AA01210848FFF784FF2046FEF791
:10155800A9FD064A0649044800F066F9024806B0A3
:1015680010BD00BF0C070020940700206C0300206A
:101578000D140A087047002211461046FFF7FEBBFB
:101588000348044B044A0549036000F04DB900BF05
:10159800AC0800209C460A086C0300207D150A0848
:1015A80008B5144B33B1FFF783FF03681B699847ED
:1015B800002816DC104B33B1FFF7FCFE03681B69EB
:1015C8009847002810DC0D4B0BB1AFF300800C4B93
:1015D8007BB1FFF7A9FF03681B699847002806DC61
:1015E80008BDAFF30080E5E7AFF30080EBE7AFF3AA
:1015F800008008BD0000000000000000000000009E
:101608000000000008B5FFF7CBFFFFF789FA014B90
:10161800186008BDB80800200248034A0349121A96
:1016280002F022BE004002400440024070470A080F
:1016380007B5002300931A466FF07701FFF784FB84
:1016480003B05DF804FB000007B543880A2B08D0F7
:10165800502B09D1094B1B683BB103B05DF804EB73
:101668001847FFF7E5FF06E0002300931A466FF0DE
:101678007701FFF769FB03B05DF804FBB0080020B1
:1016880038B5104C104D2368AB42104B0CBF0122EB
:1016980000221A7002D0FFF7BFFF2560FFF728FA73
:1016A80002F0F6FD0A4B1BB1FFF722FAAFF30080F8
:1016B80000210748FFF75AFBBDE8384000210548DC
:1016C800FFF738BB004002401E1C279AB4080020D0
:1016D8000000000051160A0810B504460F48FFF72D
:1016E800F7FD28B1A4F10D03022B01D8002010BD8D
:1016F80000F040F8FFF7ACFB08B1012CF6D9FFF772
:1017080059FEFFF753FE18B1A4F11203012BEDD9CE
:10171800172C8CBF0020012010BD00BFEC08002052
:10172800172838B504460D460AD8FF2908D0FFF710
:10173800D3FF28B129462046BDE83840FFF700BA54
:1017480038BD38B504460D46FFF702FAFF2810D019
:10175800062804D84D2323FA00F0C30709D42046ED
:10176800FFF7BAFF28B129462046BDE83840FFF701
:10177800F7B938BD38B50B4D296811F001040FD100
:101788002846FEF78AFC58B121460748FFF74EFB6A
:101798002846FEF787FC054A0549034800F044F847
:1017A800014838BDBC080020C00800206C03002098
:1017B800DD0D0A0813B5084C00231A461946009394
:1017C8002046FFF7F1FB2046044A054902B0BDE870
:1017D800104000F029B800BFD40800206C03002096
:1017E800550F0A0870B50C4C0C4E0D4D00212046C3
:1017F800FFF75AFD20460B4C3246294600F014F8F4
:1018080001212046FFF750FD324629462046BDE813
:10181800704000F009B800BFEC0800206C030020FD
:10182800A1120A08FC0800200B460146184602F0DF
:1018380007BD08B5FFF7BAFA244B1A68D0075CBF92
:1018480001221A60224B1A68D1075CBF01221A6074
:10185800204B1A68D2075CBF01221A601E4B1A6817
:10186800D0075CBF01221A601C4B1A68D1075CBF05
:1018780001221A601A4B1A68D2075CBF01221A604B
:10188800184B1A68D0075CBF01221A60164B1A68F9
:10189800D1075CBF01221A60144B1A68D2075CBFDB
:1018A80001221A60124B1A68D0075CBF01221A6025
:1018B800104B1A68D1075CBF01221A600E4B1A68D8
:1018C800D2075CBF01221A60704700BF38090020A8
:1018D80034090020300900202C09002028090020A4
:1018E80024090020200900201C09002018090020D4
:1018F80014090020100900200C090020184B1A6850
:10190800D1075CBF01221A60164B1A68D2075CBF68
:1019180001221A60144B1A68D0075CBF01221A60B2
:10192800124B1A68D1075CBF01221A60104B1A6863
:10193800D2075CBF01221A600E4B1A68D0075CBF41
:1019480001221A600C4B1A68D1075CBF01221A6089
:101958000A4B1A68D2075CBF01221A60704700BFA1
:101968005809002054090020500900204C09002083
:101978004809002044090020400900203C090020B3
:10198800184B1A68D1075CBF01221A60164B1A68F7
:10199800D2075CBF01221A60144B1A68D0075CBFDB
:1019A80001221A60124B1A68D1075CBF01221A6023
:1019B800104B1A68D2075CBF01221A600E4B1A68D6
:1019C800D0075CBF01221A600C4B1A68D1075CBFB4
:1019D80001221A600A4B1A68D2075CBF01221A60FA
:1019E800704700BF780900207409002070090020A2
:1019F8006C090020680900206409002060090020A3
:101A08005C090020244B1A68D0075CBF01221A60C9
:101A1800224B1A68D1075CBF01221A60204B1A6852
:101A2800D2075CBF01221A601E4B1A68D0075CBF40
:101A380001221A601C4B1A68D1075CBF01221A6088
:101A48001A4B1A68D2075CBF01221A60184B1A6831
:101A5800D0075CBF01221A60164B1A68D1075CBF19
:101A680001221A60144B1A68D2075CBF01221A605F
:101A7800124B1A68D0075CBF01221A60104B1A6813
:101A8800D1075CBF01221A600E4B1A68D2075CBFEF
:101A980001221A60704700BFA8090020A40900208D
:101AA800A00900209C090020980900209409002022
:101AB800900900208C090020880900208409002052
:101AC800800900207C0900202DE9F0418AB00446F5
:101AD8000D4600F095FA374B064693F900800F46FD
:101AE800B8F1FF3F0DD022462B462046294602F08A
:101AF8009BF830B9002200232046294602F08AF8D4
:101B080020B1304639460AB0BDE8F0812A4B08902A
:101B1800CDE90245CDE904450193B8F1000F19D18B
:101B2800264F4FF060462046294600220023CDE983
:101B3800066702F047F8002834D00223009368466D
:101B480001F00EFBA8B1089BC3B9DDE906010AB094
:101B5800BDE8F0811A4F00262046294600220023BE
:101B6800CDE9066702F02EF868B102239845009384
:101B7800E5D102F073FB22230360E4E702F06EFB79
:101B8800089B0360E1E70123B8F1020F00930BD132
:101B980002F064FB212303600A4801F0E3FACDE96F
:101BA8000601D0E701230093684601F0D9FA00281E
:101BB800F2D1EDE704030020A0460A08FFFFEFC7B3
:101BC8000000F0FFA4460A082DE9F0438BB0044654
:101BD8000D4600F009FC384B064693F900800F4685
:101BE800B8F1FF3F0ED022462B462046294602F088
:101BF8001BF8814630B9002200232046294601F00F
:101C0800F5FF20B9304639460BB0BDE8F0832B4BC1
:101C1800CDF82090CDE90245CDE904450193B8F10E
:101C2800000F19D1264F4FF0604620462946002262
:101C38000023CDE9066701F0C5FF002834D0022350
:101C48000093684601F08CFAA8B1089BC3B9DDE996
:101C580006010BB0BDE8F0831A4F0026204629463E
:101C680000220023CDE9066701F0ACFF68B102232A
:101C780098450093E5D102F0F1FA22230360E4E7E6
:101C880002F0ECFA089B0360E1E70123B8F1020FC8
:101C980000930BD102F0E2FA212303600A4801F015
:101CA80061FACDE90601D0E701230093684601F007
:101CB80057FA0028F2D1EDE704030020A8460A08E5
:101CC800FFFFEFC70000F0FFA4460A082DE9F04F18
:101CD8008DB006460F4614461D4600F011FCDFF88D
:101CE8001093CDE9000199F90080B8F1FF3F46D083
:101CF80022462B462046294601F096FF83460028B7
:101D08003DD132463B463046394601F08DFF82468A
:101D1800002874D1304639460022002301F052FFD2
:101D2800002833D0002200232046294601F04AFF2C
:101D38008346B8B1A94A012300200021CDF828A084
:101D4800CDE90467CDE90645CDE908010392029380
:101D5800B8F1000F6CD0A24B0022104619460DB006
:101D6800BDE8F08F2046294601F0F4F938B1002289
:101D780000232046294601F02FFF00286AD1DDE91B
:101D88000023104619460DB0BDE8F08FDDE90001CB
:101D980001F0E0F9804600287DD0DDE900014FF030
:101DA800000A4FF0000B52465B4601F00BFF00287B
:101DB800E5D03046394601F0CDF90028DFD020467D
:101DC800294601F0C7F90028D9D099F9003083488D
:101DD80004210022022BCDE90467CDE90645CDE9AF
:101DE80008AB039002910A9204D002A801F0B8F956
:101DF800002847D102F032FA2223036042E0002291
:101E080000232046294601F0DDFE0028B7D0744B98
:101E1800724800220121B8F1020FCDF828B0CDE9AF
:101E28000467CDE90645CDE9082303900291A8D0BF
:101E380002A801F095F900287ED00A9B43B302F06E
:101E48000DFADDE908230A990160104619460DB01C
:101E5800BDE8F08F614999F900300122CDF828B02A
:101E6800CDE90467CDE9064503910292002B68D0BD
:101E78005C490020022BCDE9080166D102F0EEF999
:101E8800212303600A9B1BB102F0E8F90A9B036057
:101E9800DDE9082375E73046394601F05BF900288B
:101EA8003FF47BAF2046294601F054F900283FF45F
:101EB80074AFDDE900231046194601F0B5FE00288D
:101EC8006FD1464B99F90080039303230A90CDE91B
:101ED8000467CDE906450293B8F1000F3BD1DFF85E
:101EE80014B14FF0604A0022002330463946CDE94C
:101EF80008AB01F071FE00283FF477AF00223A4B9F
:101F08002046294601F0F6FB04460D4601F030F95B
:101F180002460B462046294601F054FE00283DD1D2
:101F2800324B4FF06042CDE9082399F90080B8F1AF
:101F3800020F7FF45AAF5DE702F090F921230360A6
:101F48007BE700230024CDE9083402A801F008F952
:101F5800002897D192E7DFF8A0B04FF0000A0022DE
:101F6800002330463946CDE908AB01F035FE00289C
:101F7800DDD000221C4B2046294601F0BBFB04465D
:101F88000D4601F0F5F802460B462046294601F0B9
:101F980019FE18B9134B0022CDE9082399F90080DE
:101FA800C5E70E4A99F900900123CDF82880CDE9BC
:101FB8000467CDE9064503920293B9F1000FC0D03A
:101FC800002200231046194601F0BEFCB9F1020FA9
:101FD800CDE908013FF452AFB7E700BFB0460A08A1
:101FE8000000F03F0000F0FF0000E03FFFFFEFC7F8
:101FF80004030020FFFFEF470000F07F000000000F
:102008002DE9F04FB1F5801F85B006460F460B4607
:102018005ADA024621F00044224300F0F7800029F2
:10202800C0F279810022D64B01F064FB0B460F46C3
:10203800D44906468B426FF0350249DCC3F31305D9
:1020480005F5152404F6647404F4801E8EF07F519F
:1020580081F440111B15A3F2FF3341EA05079C18D0
:1020680030460022C84B394604EB1E5401F08EF965
:10207800AB1CC3F31303022B82468B464FF00002BE
:102088002FDC002301F09EFD002800F0C880002C02
:1020980000F04A81204601F0C7FAA5A3D3E900233E
:1020A80006460F4601F026FBA3A3D3E90023044606
:1020B8000D463046394601F01DFB02460B462046C8
:1020C800294601F065F909E0AE4900228B42B5DDE9
:1020D80032463B463046394601F05AF905B0BDE86C
:1020E800F08F4FF0804301F053F902460B465046FB
:1020F800594601F029FC064620460F4601F094FA9D
:102108003246CDE900013B4630463946CDE9026703
:1021180001F0F0FA02460B468046894601F0EAFAD9
:1021280087A3D3E9002306460F4601F0E3FA86A306
:10213800D3E9002301F02CF932463B4601F0DAFAE4
:1021480083A3D3E9002301F023F932463B4601F08B
:10215800D1FA81A3D3E9002301F01AF942464B468C
:1021680001F0C8FA7EA3D3E90023804689463046A9
:10217800394601F0BFFA7CA3D3E9002301F008F93E
:1021880032463B4601F0B6FA79A3D3E9002301F0C1
:10219800FFF832463B4601F0ADFA0B460246494687
:1021A800404601F0F5F8A5F5C223C5F5D725A3F2F9
:1021B8007A4351351D43002D8046894656DD00225D
:1021C800724B5046594601F095FA52465B4601F06B
:1021D80091FA06460F46002C68D132463B464046E7
:1021E800494601F0D5F8DDE9022301F083FA0246F9
:1021F8000B463046394601F0C9F802460B465046B0
:10220800594601F0C3F805B0BDE8F08F002200235D
:1022180000205F4901F098FB05B0BDE8F08F56A398
:10222800D3E900235046594601F064FA02460B46AA
:102238000020564901F0AAF8524606460F465B466A
:102248005046594601F056FA02460B463046394682
:1022580001F050FA06460F46002C40F09B800246DB
:102268000B465046594601F091F837E7002C00F02C
:10227800A5802FA3D3E90023DDE9000101F03AFA94
:1022880042464B4604460D465046594601F07EF8F4
:10229800DDE9022301F02EFA27A3D3E9002306463D
:1022A8000F46DDE9000101F025FA21E020A3D3E97A
:1022B8000023DDE9000101F01DFA32463B460446E1
:1022C8000D464046494601F063F8DDE9022301F076
:1022D80011FA19A3D3E9002380468946DDE90001F4
:1022E80001F008FA02460B464046494601F050F80C
:1022F80002460B463046394601F048F852465B46DE
:1023080001F044F802460B462046294601F03EF803
:1023180005B0BDE8F08F02460B4601F037F8002201
:10232800002301F011FBD9E600200021D6E600BF0A
:102338000000E0FE422EE63F763C7935EF39EA3D73
:1023480044523EDF12F1C23FDE03CB966446C73FDC
:10235800599322942449D23F935555555555E53FF5
:102368009FC678D0099AC33FAF788E1DC571CC3F00
:1023780004FA97999999D93F555555555555D53FCB
:1023880000005043FFFFEF7F0000F03F0000E03FF8
:10239800000050C3204601F047F90FA3D3E90023FA
:1023A8008046894601F0A6F90DA3D3E90023044627
:1023B8000D464046494601F09DF999E702460B460D
:1023C8005046594600F0E2FFDDE9022301F092F998
:1023D80013E700BFAFF300800000E0FE422EE63FA7
:1023E800763C7935EF39EA3DB1F5801F2DE9F843A0
:1023F80004460D460B461ADA024621F000463243DF
:1024080058D000295EDB0022394B01F073F90B46E6
:102418000D46384904468B426FF035020BDD2246E3
:102428002B462046294600F0B3FFBDE8F883314922
:1024380000228B42F3DC1815A0F2FF3010444FEA5B
:10244800D0794844C3F3130801F0EEF8C9F57F7357
:10245800033348EA035506460F4620462946FFF748
:10246800CFFD1DA3D3E9002380468946304639466F
:1024780001F040F91AA3D3E9002304460D4640466B
:10248800494601F037F902460B462046294600F036
:102498007FFF15A3D3E9002304460D46304639468D
:1024A80001F028F902460B462046294600F070FF45
:1024B800BDE8F8830022002300200F4901F044FA08
:1024C800BDE8F88302460B4600F060FF00220023B7
:1024D80001F03AFABDE8F883362BF111F3FE593DC5
:1024E8000EE526157BCBDB3F00609F501344D33F9E
:1024F80000005043FFFFEF7F000050C300000000C2
:102508002DE9F04F23F0004858EA020993B03CD077
:10251800714C21F00046A64283460D460CDD06F1BB
:10252800404606F5801656EA0B0038D183466B49BB
:10253800584613B0BDE8F08F9A4696462BD0A04572
:10254800EDDC654CA04578D0002D0F468146CDE9DD
:10255800002376DB0024BEF1000F27D15E4B98459F
:1025680000F08B805D4B984552D0BAF1804F00F057
:10257800C9835B4B9A4519D1002D17DB484639466C
:1025880013B0BDE8F04F00F01DBDCB465846534987
:1025980013B0BDE8F08F0028C1D1B045D1DD514856
:1025A80013B0BDE8F04F00F0DDBD002448463946C1
:1025B80000F0CCFDBBF1000F1CD0ED0F013D54EA3B
:1025C800050370D0484B984540F3948003F1047399
:1025D800984540F30D84454B9E4270DDBAF1000FDB
:1025E80070DD3BA3D3E900231046194601F082F8B9
:1025F80083469DE726B1394B25F040429A42DCD10B
:10260800BAF1000FC0F2B783002D08DB83468FE7CD
:10261800BAF1000FC0F25E84CB46394688E706F16E
:10262800404606F5801656EA040300F08384012C20
:10263800ECD101F1004183467AE7BEF1000F83D067
:102648006DE72B4B98452CDCA3F15473984581DD3D
:102658004FEA2853A3F2FF33142B40F35384C3F1FA
:1026680034032EFA03F202FA03F39E457FF472AFA5
:1026780002F00102C2F102046DE706F1404303F5DE
:10268800801353EA0B0300F03A83184B9E4240F341
:102698006783BAF1000F15DBDDE900349B4621465C
:1026A80046E7022457E74A4648463B46394600F083
:1026B8006DFE02460B4601F047F9834638E7BAF14A
:1026C800000F8EDB4FF0000B594631E7AFF3008067
:1026D8009C7500883CE4377E0000F07F0000F03FE6
:1026E8000000E03FA4460A080000E041FFFFEF3F7A
:1026F800FFFF3F43B6F5801F4FF0000205DAD04BCD
:1027080000F0F8FF0E466FF03402DFF844E33315AB
:10271800C6F31306A3F2FF3346F07F57764503EB63
:10272800020A47F4401740F3C983C64B00229E4271
:1027380040F304840023CDE90823CDE90C23C24BE0
:102748000022CDE906230AF1010AA7F58017002621
:102758003946DDE90623CDE90A0100F017FEDDE977
:10276800062380468946DDE90A0100F011FE02468B
:102778000B460020B44901F0E7F80A460146134623
:10278800CDE90E1202464946404600F0B3FF8C469A
:1027980083467B1043F0005303F50023991900206A
:1027A800CDE904BC06460F464FF0000B614658467B
:1027B80032463B46CDE910BCCDE9020100F09AFF54
:1027C80002460B464046494600F0E0FDDDE9062397
:1027D800804689463046394600F0D8FD02460B4609
:1027E800DDE90A0100F0D2FDDDE9022300F082FFF5
:1027F80002460B464046494600F0C8FDDDE90E2377
:1028080000F078FFDDE90478CDE906013A46434651
:102818003846414600F06EFF77A3D3E90023064609
:102828000F4600F067FF76A3D3E9002300F0B0FD60
:1028380032463B4600F05EFF73A3D3E9002300F065
:10284800A7FD32463B4600F055FF71A3D3E90023AC
:1028580000F09EFD32463B4600F04CFF6EA3D3E9E4
:10286800002300F095FD32463B4600F043FF6CA381
:10287800D3E9002300F08CFD3246804689463B466A
:102888003046394600F036FF02460B464046494678
:1028980000F030FFDDE9022306460F46DDE90401BA
:1028A80000F076FDDDE9062300F024FF32463B46C2
:1028B80000F06EFDDDE902678046894632463B46F8
:1028C8003046394600F016FF0022604BCDE90A0178
:1028D80000F05EFD42464B4600F05AFDDDE910BCB3
:1028E8000F46DDE902015A463B46CDE90EBC5E467D
:1028F80000F000FF0022CDE90201544B3046394672
:1029080000F044FDDDE90A2300F040FD02460B46D5
:102918004046494600F03AFDDDE9042300F0EAFEAE
:10292800324680468946DDE906013B4600F0E2FE74
:1029380002460B464046494600F02AFD8046894635
:1029480002460B46DDE9020100F022FDDDE90EBC7E
:1029580035A3D3E900235846CDE906BC5E460F46A9
:1029680000F0C8FEDDE90223CDE90401304639460E
:1029780000F00CFD02460B464046494600F006FDB5
:102988002BA3D3E9002300F0B5FE2BA3D3E9002342
:10299800804689463046394600F0ACFE02460B4672
:1029A8004046494600F0F4FCDDE90C2300F0F0FC59
:1029B80080465046894600F037FE06460F46DDE958
:1029C800040142464B4600F0E3FCDDE9082300F031
:1029D800DFFC32463B4600F0DBFCDDE906BC324654
:1029E80058463B46DA468B4600F0D0FCDDE9082322
:1029F80030E000BFAFF30080EF4E454A287ECA3F63
:102A080065DBC9934A86CD3F01411DA96074D13F5A
:102A18004D268F515555D53FFFAB6FDBB66DDB3F6C
:102A2800033333333333E33F000000E009C7EE3F9D
:102A3800FD033ADC09C7EE3FF5015B14E02F3EBE0B
:102A48000000404379B60B000000F03F000008404A
:102A58008E98030000F09AFCDDE9042300F096FC50
:102A680002460B464046494600F090FC804689469F
:102A7800DDE90012013C54EA050314BFD64CD74CDB
:102A88000023CDE904340B461446CDE90234002373
:102A98000293DDE9024508462B461146224600F01E
:102AA80075FC52465B4600F025FEDDE9002306462C
:102AB8000F464046494600F01DFE02460B4630468A
:102AC800394600F065FC06460F4622462B4650461E
:102AD8005946CDE9006700F00DFE0B4602468046D8
:102AE80089463046394600F053FCBD4B06469942AC
:102AF8000D460C4640F30E8101F13F4303F5E00318
:102B0800034340F0F081A0A3D3E90023DDE90001ED
:102B180000F03EFC424682468B464B4630462946EC
:102B280000F034FC02460B465046594601F072F854
:102B3800002840F0D8812F463B154FF48012A3F2AD
:102B4800FE3342FA03F32344C3F30A52A54EA2F21A
:102B5800FF321641C3F3130B0020C2F1140523EA18
:102B680006014BF4801B02460B46002C4BFA05FB72
:102B780040464946B8BFCBF1000B00F007FC0246BF
:102B88000B4680468946DDE9000100F001FC4FEA6A
:102B98000B5A00247EA3D3E9002320460D4600F0FB
:102BA800A9FD424606460F464B462046294600F0F8
:102BB800EDFB02460B46DDE9000100F0E7FB76A3DA
:102BC800D3E9002300F096FD75A3D3E900238046DE
:102BD80089462046294600F08DFD02460B464046B0
:102BE800494600F0D5FB8046894602460B463046EA
:102BF800394600F0CDFB32463B4604460D4600F010
:102C0800C5FB02460B464046494600F0BFFB22463C
:102C1800804689462B462046294600F06BFD62A374
:102C2800D3E9002306460F4600F064FD60A3D3E90C
:102C3800002300F0ABFB32463B4600F05BFD5EA391
:102C4800D3E9002300F0A4FB32463B4600F052FDD6
:102C58005BA3D3E9002300F099FB32463B4600F022
:102C680049FD59A3D3E9002300F092FB32463B46C5
:102C780000F040FD02460B462046294600F086FB40
:102C880006460F4602460B462046294600F032FD0E
:102C98000022CDE900014FF080433046394600F06C
:102CA80075FB02460B46DDE9000100F04DFE424689
:102CB80006460F464B462046294600F01BFD424675
:102CC8004B4600F065FB02460B463046394600F09D
:102CD8005DFB22462B4600F059FB02460B460020BE
:102CE8003D4900F053FB8A44BAF5801FC0F2378192
:102CF8005146DDE9042300F0FDFC834618E4F34661
:102D0800354915E44A4648463B46394600F0F2FC48
:102D180083460DE4344B21F000479F4240F3018184
:102D2800324B0B4403430CD142464B4600F02EFB7A
:102D380002460B46DDE9000100F058FF00283FF489
:102D4800FBAE23A3D3E90023DDE9040100F0D2FCA4
:102D58001FA3D3E9002300F0CDFC8346FFF7E8BBAF
:102D6800BAF1000FBFF6AEACDDE900349B4604F1C2
:102D78000041FFF7DDBB02460B460020164900F074
:102D8800E3FD41E4AFF30080FE822B654715973CD5
:102D980000000000432EE63FEF39FAFE422EE63FE0
:102DA800396CA80C615C20BED0A4BE726937663E3F
:102DB800F16BD2C541BDBB3E2CDE25AF6A56113F33
:102DC80093BDBE166CC1663F3E5555555555C53F1A
:102DD80059F3F8C21F6EA5010000F03F0000F0BFD4
:102DE800FFFF8F40FFFF0F00FFCB904000346F3F85
:102DF8006F4B9E427FF763AC6E4B9E423FF7EEAB44
:102E080000226C4B00F0C2FA5BA3D3E9002306460C
:102E18000F4600F06FFC5AA3D3E900238046894689
:102E28003046394600F066FC002282468B46624BEB
:102E38003046394600F05EFC02460B4652A1D1E905
:102E4800000100F0A3FA32463B4600F053FC02466C
:102E58000B460020594900F099FA3246CDE90201A3
:102E68003B463046394600F045FC02460B46DDE954
:102E7800020100F03FFC46A3D3E9002300F03AFC2E
:102E880002460B465046594600F080FA02460B4669
:102E980006460F464046494600F07AFA42464B46F7
:102EA800002082468B4600F071FA02460B463046F7
:102EB800394600F06BFA80468946D9E5002200239E
:102EC800CDE90823CDE90C233A4B00220026CDE9B1
:102ED80006233DE44A463B460020364900F034FDCF
:102EE8008346FFF725BB2CA3D3E90023DDE90401C2
:102EF80000F000FC28A3D3E9002300F0FBFB834685
:102F0800FFF716BBBEF1000F7FF44FABC3F11403FC
:102F180048FA03F202FA03F3984524D07446FFF7FF
:102F280021BB264B9F423FF707AEDDE902349A46A4
:102F38009B462EE602460B46FFF7B9BB204B4FF4E3
:102F48008026CDE9062316A3D3E90023CDE908237B
:102F580015A3D3E90023CDE90C23FFF7F9BB5A46A3
:102F680000F096F9C5E602F00102C2F10204FFF78B
:102F7800F9BA00BFAFF30080000000604715F73FC3
:102F880044DF5DF80BAE543E555555555555D53F64
:102F9800FE822B654715F73F9C7500883CE4377E19
:102FA8000000004003B8E23F06D0CF43EBFD4C3EA3
:102FB800FEFFEF3F0000F03F0000D03F0000E03F81
:102FC8000000F83F2DE9F0415F4E0C46B6460E4032
:102FD8007645054600F0988000290B46024674DDC8
:102FE8005FEA215E7FD0AEF2FF3EC3F313031EF00B
:102FF800010F43F4801363D100273E4603EBD271DF
:103008000B444FEA6E0E520016204FF4001174184C
:103018009C424FEAD2754FEA420202DC1B1B66183B
:103028000F44013805EB43034FEA5101EFD18446C1
:1030380020244FF0004109E020D003EBD275013C79
:103048004FEA51012B444FEA420220D09E4201EB45
:103058000C05F1DA002D05EB010C09DBB0469542B1
:10306800A3EB060300D9013B4646521B0844E4E79C
:10307800BCF1000FF2DB06F10108F0E7954217D822
:10308800002D05EB010C49DB98460023ECE71343C0
:1030980010D140087B1003F17F5303F50013FA07A2
:1030A80003EB0E57394648BF40F00040BDE8F081B9
:1030B8003346C2E7411C35D000F001031844E8E765
:1030C8005B0003EBD273520096E721F000460643FB
:1030D800ECD079BB8E46D30AAEF1150E5205002B03
:1030E800F9D0DD0221D4002100E001465B00DC02BA
:1030F80001F10100F9D5C0F1200422FA04F42343B8
:10310800C1EB0E0E82406EE702460B4600F0F2FA63
:103118002A46234600F03CF9BDE8F081BCF1000FD7
:10312800A9DAB1E701372046B4E720244FF0FF3190
:103138000020E2E702460B4600F028F902460B465B
:1031480000F002FCB2E700BF0000F07F21F0004170
:10315800704700BF41F0004101F58010C00F704773
:103168000020704700200149704700BF0000F87F29
:10317800F0B5C1F30A5EAEF2FF36132E83B00246F5
:103188000B460C464FEAD17507462EDC002E49DB6C
:103198003D49314103EA010010432BD049080B4057
:1031A80053EA02070CD04FF48023132E24EA0101BE
:1031B80043FA06F444EA01040CBF4FF00047002725
:1031C800324B214603EBC505D5E900453846224672
:1031D8002B4600F0DDF8CDE90001DDE900012246CB
:1031E8002B4600F0D3F803B0F0BD332E06DDB6F55C
:1031F800806F45D01046194603B0F0BDAEF2134EAD
:103208004FF0FF3121FA0EF10842F3D04908084285
:10321800D6D04FF0804320EA010143FA0EFE4EEA71
:103228000107CDE721F0004101431946E4D0C3F37B
:10323800130343EA000CCCF1000343EA0C0C134BD4
:10324800640C4FEA1C3C0CF4002C03EBC50364042B
:10325800D3E900674CEA040132463B4600F098F88F
:10326800CDE90001DDE9000132463B4600F08EF869
:10327800024621F0004141EAC57310461946BBE7F2
:1032880000F086F8B8E700BFFFFF0F00B8460A084D
:10329800F8B5C1F30A5604460D460B46174606BB59
:1032A80021F00043034325D000222F4B00F022FADF
:1032B8002E4A044697420D460B462ADBC1F30A56AE
:1032C800363E40F2FE723E44964228DC002E12DD65
:1032D80023F0FF4323F4E00343EA0655204629463A
:1032E800F8BD40F2FF729642EBD102460B4600F061
:1032F8004FF8F8BDF8BD16F1350F1DDA4CF2503312
:103308009F420CDC14A1D1E9000122462B4600F0B3
:1033180031F811A3D3E9002300F0ECF9F8BD2246F7
:103328000FA1D1E900012B4600F024F80CA3D3E942
:10333800002300F0DFF9F8BD23F0FF4323F4E00396
:10334800363643EA0655204629460022084B00F047
:10335800D1F9F8BDAFF3008059F3F8C21F6EA5018B
:103368009C7500883CE4377E00005043B03CFFFF6A
:103378000000903C03F0004321F0004242EA0301C0
:10338800704700BF81F0004102E000BF83F00043B6
:1033980030B54FEA41044FEA430594EA050F08BFE8
:1033A80090EA020F1FBF54EA000C55EA020C7FEAAC
:1033B800645C7FEA655C00F0E2804FEA5454D4EB29
:1033C8005555B8BF6D420CDD2C4480EA020281EAF3
:1033D800030382EA000083EA010180EA020281EA2B
:1033E8000303362D88BF30BD11F0004F4FEA01317D
:1033F8004FF4801C4CEA113102D0404261EB41018C
:1034080013F0004F4FEA03334CEA133302D0524211
:1034180063EB430394EA050F00F0A780A4F10104CD
:10342800D5F1200E0DDB02FA0EFC22FA05F2801807
:1034380041F1000103FA0EF2801843FA05F35941ED
:103448000EE0A5F120050EF1200E012A03FA0EFC6C
:1034580028BF4CF0020C43FA05F3C01851EBE37196
:1034680001F0004507D54FF0000EDCF1000C7EEBB3
:1034780000006EEB0101B1F5801F1BD3B1F5001FF1
:103488000CD349085FEA30004FEA3C0C04F1010410
:103498004FEA445212F5800F80F09A80BCF1004F39
:1034A80008BF5FEA500C50F1000041EB045141EABB
:1034B800050130BD5FEA4C0C404141EB010111F4BC
:1034C800801FA4F10104E9D191F0000F04BF014667
:1034D8000020B1FA81F308BF2033A3F10B03B3F145
:1034E80020020CDA0C3208DD02F1140CC2F10C02D5
:1034F80001FA0CF021FA02F10CE002F11402D8BF33
:10350800C2F1200C01FA02F120FA0CFCDCBF41EAFE
:103518000C019040E41AA2BF01EB0451294330BDCD
:103528006FEA04041F3C1CDA0C340EDC04F11404AA
:10353800C4F1200220FA04F001FA02F340EA030081
:1035480021FA04F345EA030130BDC4F10C04C4F1C7
:10355800200220FA02F001FA04F340EA03002946A7
:1035680030BD21FA04F0294630BD94F0000F83F4F1
:10357800801306BF81F480110134013D4EE77FEAD4
:10358800645C18BF7FEA655C29D094EA050F08BF20
:1035980090EA020F05D054EA000C04BF1946104601
:1035A80030BD91EA030F1EBF0021002030BD5FEA45
:1035B800545C05D14000494128BF41F0004130BD6D
:1035C80014F580043CBF01F5801130BD01F00045C1
:1035D80045F0FE4141F470014FF0000030BD7FEA34
:1035E800645C1ABF194610467FEA655C1CBF0B462F
:1035F800024650EA013406BF52EA033591EA030F46
:1036080041F4002130BD00BF90F0000F04BF00213D
:10361800704730B54FF4806404F132044FF0000570
:103628004FF0000150E700BF90F0000F04BF0021E9
:10363800704730B54FF4806404F1320410F000454F
:1036480048BF40424FF000013EE700BF42004FEA4A
:10365800E2014FEA31014FEA02701FBF12F07F43C7
:1036680093F07F4F81F06051704792F0000F14BFC4
:1036780093F07F4F704730B54FF4607401F0004508
:1036880021F0004120E700BF50EA010208BF70475F
:1036980030B54FF000050AE050EA010208BF704754
:1036A80030B511F0004502D5404261EB41014FF4BD
:1036B800806404F132045FEA915C3FF4DCAE4FF0C1
:1036C80003025FEADC0C18BF03325FEADC0C18BFA8
:1036D800033202EBDC02C2F1200300FA03FC20FAF9
:1036E80002F001FA03FE40EA0E0021FA02F1144446
:1036F800C1E600BF70B54FF0FF0C4CF4E06C1CEA5B
:1037080011541DBF1CEA135594EA0C0F95EA0C0FCF
:1037180000F0DEF82C4481EA030621EA4C5123EA42
:103728004C5350EA013518BF52EA033541F4801171
:1037380043F4801338D0A0FB02CE4FF00005E1FB24
:1037480002E506F00042E0FB03E54FF00006E1FB6E
:1037580003569CF0000F18BF4EF0010EA4F1FF04B1
:10376800B6F5007F64F5407404D25FEA4E0E6D41F1
:1037780046EB060642EAC62141EA55514FEAC52002
:1037880040EA5E504FEACE2EB4F1FD0C88BFBCF57E
:10379800E06F1ED8BEF1004F08BF5FEA500E50F12F
:1037A800000041EB045170BD06F0004646EA0101F5
:1037B80040EA020081EA0301B4EB5C04C2BFD4EB27
:1037C8000C0541EA045170BD41F480114FF0000E20
:1037D800013C00F3AB8014F1360FDEBF002001F08E
:1037E800004170BDC4F10004203C35DA0C341BDC08
:1037F80004F11404C4F1200500FA05F320FA04F0DA
:1038080001FA05F240EA020001F0004221F000410D
:1038180010EBD37021FA04F642EB06015EEA430E80
:1038280008BF20EAD37070BDC4F10C04C4F12005B0
:1038380000FA04F320FA05F001FA04F240EA020063
:1038480001F0004110EBD37041F100015EEA430E34
:1038580008BF20EAD37070BDC4F1200500FA05F254
:103868004EEA020E20FA04F301FA05F243EA0203D3
:1038780021FA04F001F0004121FA04F220EA0200E2
:1038880000EBD3705EEA430E08BF20EAD37070BD28
:1038980094F0000F0FD101F00046400041EB010108
:1038A80011F4801F08BF013CF7D041EA060195F0EA
:1038B800000F18BF704703F00046520043EB0303A4
:1038C80013F4801F08BF013DF7D043EA0603704791
:1038D80094EA0C0F0CEA135518BF95EA0C0F0CD09C
:1038E80050EA410618BF52EA4306D1D181EA0301E2
:1038F80001F000414FF0000070BD50EA410606BFDC
:103908001046194652EA430619D094EA0C0F02D120
:1039180050EA013613D195EA0C0F05D152EA033665
:103928001CBF104619460AD181EA030101F0004183
:1039380041F0FE4141F470014FF0000070BD41F0CC
:10394800FE4141F4780170BD70B54FF0FF0C4CF4A6
:10395800E06C1CEA11541DBF1CEA135594EA0C0FC5
:1039680095EA0C0F00F0A7F8A4EB050481EA030E12
:1039780052EA03354FEA013100F088804FEA0333F9
:103988004FF0805545EA131343EA12634FEA0222C7
:1039980045EA111545EA10654FEA00260EF0004188
:1039A8009D4208BF964244F1FD0404F5407402D2DA
:1039B8005B084FEA3202B61A65EB03055B084FEA6B
:1039C80032024FF480104FF4002CB6EB020E75EB68
:1039D800030E22BFB61A754640EA0C005B084FEA90
:1039E8003202B6EB020E75EB030E22BFB61A75460D
:1039F80040EA5C005B084FEA3202B6EB020E75EB58
:103A0800030E22BFB61A754640EA9C005B084FEACF
:103A18003202B6EB020E75EB030E22BFB61A7546DC
:103A280040EADC0055EA060E18D04FEA051545EACB
:103A380016754FEA06164FEAC30343EA52734FEA74
:103A4800C2025FEA1C1CC0D111F4801F0BD141EAED
:103A580000014FF000004FF0004CB6E711F4801F52
:103A680004BF01430020B4F1FD0C88BFBCF5E06F32
:103A78003FF6AFAEB5EB030C04BFB6EB020C5FEA42
:103A8800500C50F1000041EB045170BD0EF0004E97
:103A98004EEA113114EB5C04C2BFD4EB0C0541EAC9
:103AA800045170BD41F480114FF0000E013C90E6C6
:103AB80045EA060E8DE60CEA135594EA0C0F08BF8A
:103AC80095EA0C0F3FF43BAF94EA0C0F0AD150EA89
:103AD80001347FF434AF95EA0C0F7FF425AF10461C
:103AE80019462CE795EA0C0F06D152EA03353FF444
:103AF800FDAE1046194622E750EA410618BF52EAC1
:103B080043067FF4C5AE50EA41047FF40DAF52EA94
:103B180043057FF4EBAE12E74FF0FF3C06E000BF31
:103B28004FF0010C02E000BF4FF0010C4DF804CD3E
:103B38004FEA410C7FEA6C5C4FEA430C18BF7FEAFE
:103B48006C5C1BD001B050EA410C0CBF52EA430C2C
:103B580091EA030F02BF90EA020F0020704710F1AC
:103B6800000F91EA030F58BF994208BF90422CBF3B
:103B7800D8176FEAE37040F0010070474FEA410C34
:103B88007FEA6C5C02D150EA013C07D14FEA430C52
:103B98007FEA6C5CD6D152EA033CD3D05DF8040BC3
:103BA800704700BF8446104662468C4619466346F5
:103BB80000E000BF01B5FFF7B7FF002848BF10F1CC
:103BC800000F01BD4DF808EDFFF7F4FF0CBF012011
:103BD80000205DF808FB00BF4DF808EDFFF7EAFF8D
:103BE80034BF012000205DF808FB00BF4DF808ED48
:103BF800FFF7E0FF94BF012000205DF808FB00BF3D
:103C08004DF808EDFFF7CEFF94BF012000205DF8C6
:103C180008FB00BF4DF808EDFFF7C4FF34BF0120D3
:103C280000205DF808FB00BF4FEA410C7FEA6C5C9E
:103C380002D150EA013C0AD14FEA430C7FEA6C5C9E
:103C480002D152EA033C02D14FF0000070474FF016
:103C5800010070474FEA410212F5001215D211D542
:103C68006FF47873B3EB625212D94FEAC12343F071
:103C7800004343EA505311F0004F23FA02F018BFF3
:103C8800404270474FF00000704750EA013005D1BC
:103C980011F0004008BF6FF0004070474FF000007F
:103CA800704700BF4A0011D212F5001211D20DD58B
:103CB8006FF47873B3EB62520ED44FEAC12343F02A
:103CC800004343EA505323FA02F070474FF00000D4
:103CD800704750EA013002D14FF0FF3070474FF083
:103CE800000070474FEA4102B2F1E04324BFB3F548
:103CF800001CDCF1FE5C0DD901F0004C4FEAC0025B
:103D08004CEA5070B2F1004F40EB830008BF20F03E
:103D18000100704711F0804F21D113F13872BCBFF8
:103D280001F00040704741F480114FEA5252C2F14D
:103D38001802C2F1200C10FA0CF320FA02F018BF96
:103D480040F001004FEAC1234FEAD32303FA0CFCE9
:103D580040EA0C0023FA02F34FEA4303CCE77FEA78
:103D6800625307D150EA01331EBF4FF0FE4040F4C2
:103D78004000704701F0004040F0FE4040F4000071
:103D8800704700BF80F0004002E000BF81F00041B2
:103D980042001FBF5FEA410392EA030F7FEA226CE9
:103DA8007FEA236C6AD04FEA1262D2EB1363C1BF79
:103DB800D218414048404140B8BF5B42192B88BFE8
:103DC800704710F0004F40F4000020F07F4018BF0B
:103DD800404211F0004F41F4000121F07F4118BF2B
:103DE800494292EA030F3FD0A2F1010241FA03FCD3
:103DF80010EB0C00C3F1200301FA03F100F00043BB
:103E080002D5494260EB4000B0F5000F13D3B0F182
:103E1800807F06D340084FEA310102F10102FE2AF1
:103E280051D2B1F1004F40EBC25008BF20F0010061
:103E380040EA03007047490040EB000010F4000F0F
:103E4800A2F10102EDD1B0FA80FCACF1080CB2EBA2
:103E58000C0200FA0CF0AABF00EBC2505242184301
:103E6800BCBFD0401843704792F0000F81F40001A6
:103E780006BF80F400000132013BB5E74FEA410379
:103E88007FEA226C18BF7FEA236C21D092EA030FE5
:103E980004D092F0000F08BF0846704790EA010F5F
:103EA8001CBF0020704712F07F4F04D1400028BF8C
:103EB80040F00040704712F100723CBF00F500006E
:103EC800704700F0004343F0FE4040F400007047A4
:103ED8007FEA226216BF08467FEA23630146420250
:103EE80006BF5FEA412390EA010F40F48000704763
:103EF8004FF0000304E000BF10F0004348BF404209
:103F08005FEA000C08BF704743F0964301464FF044
:103F180000001CE050EA010208BF70474FF00003A0
:103F28000AE000BF50EA010208BF704711F00043E1
:103F380002D5404261EB41015FEA010C02BF8446B1
:103F48000146002043F0B64308BFA3F18053A3F510
:103F58000003BCFA8CF2083AA3EBC25310DB01FA57
:103F680002FC634400FA02FCC2F12002BCF1004FDB
:103F780020FA02F243EB020008BF20F0010070476C
:103F880002F1200201FA02FCC2F1200250EA4C00C0
:103F980021FA02F243EB020008BF20EADC70704706
:103FA8004FF0FF0C1CEAD0521EBF1CEAD15392EA14
:103FB8000C0F93EA0C0F6FD01A4480EA010C4002F0
:103FC80018BF5FEA41211ED04FF0006343EA50104A
:103FD80043EA5111A0FB01310CF00040B1F5000F8C
:103FE8003EBF490041EAD3715B0040EA010062F13B
:103FF8007F02FD2A1DD8B3F1004F40EBC25008BF25
:1040080020F00100704790F0000F0CF0004C08BF42
:1040180049024CEA502040EA51207F3AC2BFD2F10F
:10402800FF0340EAC250704740F400004FF000031D
:10403800013A5DDC12F1190FDCBF00F00040704757
:10404800C2F10002410021FA02F1C2F1200200FA95
:1040580002FC5FEA310040F1000053EA4C0308BF5C
:1040680020EADC70704792F0000F00F0004C02BFAD
:10407800400010F4000F013AF9D040EA0C0093F028
:10408800000F01F0004C02BF490011F4000F013B82
:10409800F9D041EA0C018FE70CEAD15392EA0C0FF0
:1040A80018BF93EA0C0F0AD030F0004C18BF31F05B
:1040B800004CD8D180EA010000F00040704790F031
:1040C800000F17BF90F0004F084691F0000F91F0D5
:1040D800004F14D092EA0C0F01D142020FD193EA9B
:1040E8000C0F03D14B0218BF084608D180EA010023
:1040F80000F0004040F0FE4040F40000704740F0FF
:10410800FE4040F4400070474FF0FF0C1CEAD052CC
:104118001EBF1CEAD15392EA0C0F93EA0C0F69D028
:10412800A2EB030280EA010C49024FEA402037D093
:104138004FF0805343EA111143EA10130CF000408A
:104148008B4238BF5B0042F17D024FF4000C8B427A
:1041580024BF5B1A40EA0C00B3EB510F24BFA3EB5A
:10416800510340EA5C00B3EB910F24BFA3EB91032A
:1041780040EA9C00B3EBD10F24BFA3EBD10340EA84
:10418800DC001B0118BF5FEA1C1CE0D1FD2A3FF6CA
:1041980050AF8B4240EBC25008BF20F0010070477F
:1041A8000CF0004C4CEA50207F32C2BFD2F1FF0322
:1041B80040EAC250704740F400004FF00003013A53
:1041C80037E792F0000F00F0004C02BF400010F4F7
:1041D800000F013AF9D040EA0C0093F0000F01F00B
:1041E800004C02BF490011F4000F013BF9D041EA2D
:1041F8000C0195E70CEAD15392EA0C0F08D1420260
:104208007FF47DAF93EA0C0F7FF470AF084676E732
:1042180093EA0C0F04D14B023FF44CAF08466EE70B
:1042280030F0004C18BF31F0004CCAD130F00042D9
:104238007FF45CAF31F000437FF43CAF5FE700BF31
:1042480010B5054C13462CB10A4601460220AFF3BF
:10425800008010BD204610BD00000000014B18680A
:10426800704700BF6803002010B5431E0A449142FE
:1042780004D011F8014B03F8014FF8E710BD0346CD
:104288000244934202D003F8011BFAE7704700008A
:1042980038B5124B05461C68A36BD3B91820FCF738
:1042A80075FD43F20E33A06303804AF6CD33438095
:1042B80041F2342383804EF26D63C3804DF6EC6384
:1042C8000381052343810B23838101220023C0E955
:1042D8000423A36B00221D615A6138BD68030020C6
:1042E800034613F8012B002AFBD1181A013870472E
:1042F8001D000A085D000A0889000A088D000A08DE
:1043080000000000507265737320616E79206B6540
:104318007920746F2073746172742E00444854209D
:1043280053696D706C652070726F6772616D20756E
:1043380073696E67204448542E61637175697265AC
:10434800416E6457616974004C4942207665727306
:10435800696F6E3A20002D2D2D2D2D2D2D2D2D2DF3
:104368002D2D2D2D2D003A205265747269657669C0
:104378006E6720696E666F726D6174696F6E206614
:10438800726F6D2073656E736F723A2000526561AB
:10439800642073656E736F723A20004F4B0045724C
:1043A800726F720A0D09436865636B73756D2065DA
:1043B80072726F72004572726F720A0D0949535218
:1043C8002074696D65206F7574206572726F720054
:1043D8004572726F720A0D09526573706F6E73655C
:1043E8002074696D65206F7574206572726F720034
:1043F8004572726F720A0D09446174612074696DA7
:1044080065206F7574206572726F72004572726FE5
:10441800720A0D09416371756972696E67004572A8
:10442800726F720A0D0944656C74612074696D6558
:1044380020746F20736D616C6C004572726F720A24
:104448000D094E6F74207374617274656400556E43
:104458006B6E6F776E206572726F720048756D694A
:1044680064697479202825293A200054656D70659F
:1044780072617475726520286F43293A200054656B
:104488006D706572617475726520286F46293A20CF
:104498000054656D706572617475726520284B29CA
:1044A8003A200044657720506F696E7420286F4366
:1044B800293A200044657720506F696E7420536C48
:1044C8006F7720286F43293A2000302E302E37008E
:1044D8000000000000000000DD0D0A08270E0A0891
:1044E800FF0D0A08DF0D0A08070E0A080F0E0A0852
:1044F800170E0A081F0E0A0800000000000000003E
:10450800630F0A08550F0A08570F0A086C6E0066F1
:104518006E00636F64650064657461696C000D0A00
:1045280000253031307520005D20002564002C20E6
:104538000028293A2000205B00636F6465203D2035
:104548000025690064657461696C73203D20006210
:104558006175640053657269616C00555342536517
:104568007269616C31007479706500706172616D97
:1045780000636D6400696400686E64007374726D32
:104588000066696C74006C766C0061646448616EE6
:10459800646C65720072656D6F766548616E646CF7
:1045A800657200656E756D48616E646C6572730046
:1045B8004A534F4E53747265616D4C6F6748616E14
:1045C800646C657200617070006E6F6E6500747265
:1045D80061636500696E666F007761726E00706175
:1045E8006E6963006E616E006F766600696E6600C4
:1045F8000000000000000000A1120A08A3120A0827
:104608005A00252B3033643A253032750025592D50
:10461800256D2D25645425483A254D3A2553257A8C
:104628000061736374696D6500000000000000009C
:104638000000000035130A0859130A0865130A0810
:10464800D90F0A0841130A084D130A0847130A0824
:1046580053130A0837130A083B130A08000000001E
:10466800000000000D140A0851140A082B140A0847
:10467800D90F0A0825140A080F140A0817140A087B
:104688004B140A081F140A0809140A08000000003D
:10469800000000007F150A086C6F6700000000002A
:1046A8006C6F673130000000706F77000000000009
:1046B800000000000000304300000000000030C38C
:1046C80000000000000000000000000000000000E2
:1046D80000000000000000000000000000000000D2
:1046E80000000000000000000000000000000000C2
:1046F80000000000000000000000000000000000B2
:1047080000000000000000000000000000000000A1
:104718000000000000000000000000000000000091
:104728004300000021030A08C90A0A08CD0A0A083A
:10473800D10A0A08D50A0A08C90F0A0885120A0800
:10474800E1120A0821130A0889150A08BD170A0880
:10475800ED170A0841180A0805190A0889190A08EC
:084768000D1A0A080000000010
:044770000000000045
:1047740029460A080100000000000000C8460A0893
:10478400E8460A0808470A08000000000000000084
:10479400000000000000000028470A080000000094
:1047A4000000000000000000000000000000000005
:1047B40000000000000000000000000000000000F5
:1047C40000000000000000000000000000000000E5
:0C47D400000000000000000008030020AE
:1047E000FFFFFFFF00000102030405060708090A96
:1047F0000B0C0D0E0F101112131415161718191A91
:084800001B1C1D1E1F202800D7
:044808007856341298
:04000005080A0018CD
:00000001FF
